{"abi":[{"inputs":[{"internalType":"address","name":"","type":"address"},{"internalType":"uint256","name":"","type":"uint256"}],"name":"NFT_List","outputs":[{"internalType":"uint256","name":"token_id","type":"uint256"},{"internalType":"address","name":"owner","type":"address"},{"internalType":"string","name":"name","type":"string"},{"internalType":"string","name":"description","type":"string"},{"internalType":"string","name":"image","type":"string"},{"internalType":"uint256","name":"price","type":"uint256"},{"internalType":"address","name":"approved_to","type":"address"},{"internalType":"uint256","name":"timestamp","type":"uint256"}],"stateMutability":"view","type":"function"},{"inputs":[{"internalType":"string","name":"_name","type":"string"},{"internalType":"string","name":"_description","type":"string"},{"internalType":"string","name":"_image","type":"string"},{"internalType":"uint256","name":"_price","type":"uint256"}],"name":"addNFT","outputs":[{"internalType":"uint256","name":"","type":"uint256"}],"stateMutability":"nonpayable","type":"function"},{"inputs":[{"internalType":"uint256","name":"_token_id","type":"uint256"}],"name":"destroyNFT","outputs":[],"stateMutability":"nonpayable","type":"function"},{"inputs":[{"internalType":"uint256","name":"_token_id","type":"uint256"}],"name":"getNFT","outputs":[{"components":[{"internalType":"uint256","name":"token_id","type":"uint256"},{"internalType":"address","name":"owner","type":"address"},{"internalType":"string","name":"name","type":"string"},{"internalType":"string","name":"description","type":"string"},{"internalType":"string","name":"image","type":"string"},{"internalType":"uint256","name":"price","type":"uint256"},{"internalType":"address","name":"approved_to","type":"address"},{"internalType":"address[]","name":"approval_list","type":"address[]"},{"internalType":"uint256","name":"timestamp","type":"uint256"}],"internalType":"struct NFT_Market.NFT","name":"","type":"tuple"}],"stateMutability":"view","type":"function"},{"inputs":[],"name":"getNFTs","outputs":[{"components":[{"internalType":"uint256","name":"token_id","type":"uint256"},{"internalType":"address","name":"owner","type":"address"},{"internalType":"string","name":"name","type":"string"},{"internalType":"string","name":"description","type":"string"},{"internalType":"string","name":"image","type":"string"},{"internalType":"uint256","name":"price","type":"uint256"},{"internalType":"address","name":"approved_to","type":"address"},{"internalType":"address[]","name":"approval_list","type":"address[]"},{"internalType":"uint256","name":"timestamp","type":"uint256"}],"internalType":"struct NFT_Market.NFT[]","name":"","type":"tuple[]"}],"stateMutability":"view","type":"function"},{"inputs":[],"name":"nft","outputs":[{"internalType":"uint256","name":"token_id","type":"uint256"},{"internalType":"address","name":"owner","type":"address"},{"internalType":"string","name":"name","type":"string"},{"internalType":"string","name":"description","type":"string"},{"internalType":"string","name":"image","type":"string"},{"internalType":"uint256","name":"price","type":"uint256"},{"internalType":"address","name":"approved_to","type":"address"},{"internalType":"uint256","name":"timestamp","type":"uint256"}],"stateMutability":"view","type":"function"},{"inputs":[{"internalType":"uint256","name":"_token_id","type":"uint256"}],"name":"purchaseNFT","outputs":[],"stateMutability":"payable","type":"function"},{"inputs":[{"internalType":"uint256","name":"_token_id","type":"uint256"}],"name":"requestApproval","outputs":[],"stateMutability":"nonpayable","type":"function"},{"inputs":[{"internalType":"uint256","name":"_token_id","type":"uint256"},{"internalType":"address","name":"_to","type":"address"}],"name":"setApprove","outputs":[{"internalType":"bool","name":"","type":"bool"}],"stateMutability":"nonpayable","type":"function"},{"inputs":[],"name":"tokenCounter","outputs":[{"internalType":"uint256","name":"","type":"uint256"}],"stateMutability":"view","type":"function"},{"inputs":[{"internalType":"uint256","name":"","type":"uint256"}],"name":"tokenIdToNFT","outputs":[{"internalType":"uint256","name":"token_id","type":"uint256"},{"internalType":"address","name":"owner","type":"address"},{"internalType":"string","name":"name","type":"string"},{"internalType":"string","name":"description","type":"string"},{"internalType":"string","name":"image","type":"string"},{"internalType":"uint256","name":"price","type":"uint256"},{"internalType":"address","name":"approved_to","type":"address"},{"internalType":"uint256","name":"timestamp","type":"uint256"}],"stateMutability":"view","type":"function"},{"inputs":[{"internalType":"uint256","name":"","type":"uint256"}],"name":"tokenIdToOwner","outputs":[{"internalType":"address","name":"","type":"address"}],"stateMutability":"view","type":"function"}],"bytecode":"608060405234801561001057600080fd5b50611ee5806100206000396000f3fe6080604052600436106100a75760003560e01c8063690a15f511610064578063690a15f51461018e5780636d148f84146101ae5780636e9e48ef146101ce5780636f5395f21461021c578063c40412b51461024a578063d082e3811461026a57600080fd5b8063150bde03146100ac5780631905ac80146100c1578063227212f2146100f657806347ccca0214610118578063576f7ea7146101415780636160bd1a1461016e575b600080fd5b6100bf6100ba3660046119ff565b610280565b005b3480156100cd57600080fd5b506100e16100dc366004611a34565b61072c565b60405190151581526020015b60405180910390f35b34801561010257600080fd5b5061010b610784565b6040516100ed9190611bb6565b34801561012457600080fd5b5061012d610a6a565b6040516100ed989796959493929190611c18565b34801561014d57600080fd5b5061016161015c3660046119ff565b610c49565b6040516100ed9190611c8c565b34801561017a57600080fd5b5061012d610189366004611ca6565b610f47565b34801561019a57600080fd5b5061012d6101a93660046119ff565b610f9a565b3480156101ba57600080fd5b506100bf6101c93660046119ff565b610fcc565b3480156101da57600080fd5b506102046101e93660046119ff565b600b602052600090815260409020546001600160a01b031681565b6040516001600160a01b0390911681526020016100ed565b34801561022857600080fd5b5061023c610237366004611d73565b611025565b6040519081526020016100ed565b34801561025657600080fd5b506100bf6102653660046119ff565b6114f2565b34801561027657600080fd5b5061023c60005481565b6000818152600b60205260409020546001600160a01b031633036102a357600080fd5b60005b6000828152600b60209081526040808320546001600160a01b03168352600a909152902054811015610728576000828152600b60209081526040808320546001600160a01b03168352600a909152902080548290811061030857610308611e03565b9060005260206000209060090201600001548203610716576000828152600c6020526040902060050154341461037b5760405162461bcd60e51b815260206004820152601460248201527354686520616d6f756e742069732077726f6e672160601b604482015260640160405180910390fd5b6000828152600b60205260408082205490516001600160a01b03909116913480156108fc02929091818181858888f193505050501580156103c0573d6000803e3d6000fd5b506000828152600b60209081526040808320546001600160a01b03168352600a909152902080546103f390600190611e2f565b8154811061040357610403611e03565b60009182526020808320858452600b82526040808520546001600160a01b03168552600a90925292208054600990920290920191908390811061044857610448611e03565b60009182526020909120825460099092020190815560018083015490820180546001600160a01b0319166001600160a01b03909216919091179055600280830180549183019161049790611e46565b6104a29291906117fc565b5060038201816003019080546104b790611e46565b6104c29291906117fc565b5060048201816004019080546104d790611e46565b6104e29291906117fc565b506005828101549082015560068083015490820180546001600160a01b0319166001600160a01b03909216919091179055600780830180546105279284019190611887565b506008918201549101556000828152600b60209081526040808320546001600160a01b03168352600a909152902080548061056457610564611e80565b6000828152602081206009600019909301928302018181556001810180546001600160a01b03191690559061059c60028301826118c6565b6105aa6003830160006118c6565b6105b86004830160006118c6565b6000600583018190556006830180546001600160a01b03191690556105e1906007840190611903565b5060006008919091018190559155828152600c6020818152604080842060018082018054336001600160a01b031991821681178355600b875285892080548316821790558852600a865293872095855285548083018755958752939095208154600990950201938455915493830180546001600160a01b039095169490911693909317909255600280830180549183019161067b90611e46565b6106869291906117fc565b50600382018160030190805461069b90611e46565b6106a69291906117fc565b5060048201816004019080546106bb90611e46565b6106c69291906117fc565b506005828101549082015560068083015490820180546001600160a01b0319166001600160a01b039092169190911790556007808301805461070b9284019190611887565b506008918201549101555b8061072081611e96565b9150506102a6565b5050565b6000828152600b60205260408120546001600160a01b0316331461074f57600080fd5b506000828152600c60205260409020600190810180546001600160a01b0384166001600160a01b031990911617905592915050565b336000908152600a60209081526040808320805482518185028101850190935280835260609492939192909184015b82821015610a615760008481526020908190206040805161012081018252600986029092018054835260018101546001600160a01b0316938301939093526002830180549293929184019161080790611e46565b80601f016020809104026020016040519081016040528092919081815260200182805461083390611e46565b80156108805780601f1061085557610100808354040283529160200191610880565b820191906000526020600020905b81548152906001019060200180831161086357829003601f168201915b5050505050815260200160038201805461089990611e46565b80601f01602080910402602001604051908101604052809291908181526020018280546108c590611e46565b80156109125780601f106108e757610100808354040283529160200191610912565b820191906000526020600020905b8154815290600101906020018083116108f557829003601f168201915b5050505050815260200160048201805461092b90611e46565b80601f016020809104026020016040519081016040528092919081815260200182805461095790611e46565b80156109a45780601f10610979576101008083540402835291602001916109a4565b820191906000526020600020905b81548152906001019060200180831161098757829003601f168201915b50505050508152602001600582015481526020016006820160009054906101000a90046001600160a01b03166001600160a01b03166001600160a01b0316815260200160078201805480602002602001604051908101604052809291908181526020018280548015610a3f57602002820191906000526020600020905b81546001600160a01b03168152600190910190602001808311610a21575b50505050508152602001600882015481525050815260200190600101906107b3565b50505050905090565b600180546002546003805492936001600160a01b0390921692610a8c90611e46565b80601f0160208091040260200160405190810160405280929190818152602001828054610ab890611e46565b8015610b055780601f10610ada57610100808354040283529160200191610b05565b820191906000526020600020905b815481529060010190602001808311610ae857829003601f168201915b505050505090806003018054610b1a90611e46565b80601f0160208091040260200160405190810160405280929190818152602001828054610b4690611e46565b8015610b935780601f10610b6857610100808354040283529160200191610b93565b820191906000526020600020905b815481529060010190602001808311610b7657829003601f168201915b505050505090806004018054610ba890611e46565b80601f0160208091040260200160405190810160405280929190818152602001828054610bd490611e46565b8015610c215780601f10610bf657610100808354040283529160200191610c21565b820191906000526020600020905b815481529060010190602001808311610c0457829003601f168201915b5050505060058301546006840154600890940154929390926001600160a01b03909116915088565b610caa6040518061012001604052806000815260200160006001600160a01b031681526020016060815260200160608152602001606081526020016000815260200160006001600160a01b0316815260200160608152602001600081525090565b6000828152600c60209081526040918290208251610120810184528154815260018201546001600160a01b0316928101929092526002810180549293919291840191610cf590611e46565b80601f0160208091040260200160405190810160405280929190818152602001828054610d2190611e46565b8015610d6e5780601f10610d4357610100808354040283529160200191610d6e565b820191906000526020600020905b815481529060010190602001808311610d5157829003601f168201915b50505050508152602001600382018054610d8790611e46565b80601f0160208091040260200160405190810160405280929190818152602001828054610db390611e46565b8015610e005780601f10610dd557610100808354040283529160200191610e00565b820191906000526020600020905b815481529060010190602001808311610de357829003601f168201915b50505050508152602001600482018054610e1990611e46565b80601f0160208091040260200160405190810160405280929190818152602001828054610e4590611e46565b8015610e925780601f10610e6757610100808354040283529160200191610e92565b820191906000526020600020905b815481529060010190602001808311610e7557829003601f168201915b50505050508152602001600582015481526020016006820160009054906101000a90046001600160a01b03166001600160a01b03166001600160a01b0316815260200160078201805480602002602001604051908101604052809291908181526020018280548015610f2d57602002820191906000526020600020905b81546001600160a01b03168152600190910190602001808311610f0f575b505050505081526020016008820154815250509050919050565b600a6020528160005260406000208181548110610f6357600080fd5b60009182526020909120600990910201805460018201546002830180549295506001600160a01b03909116935090610a8c90611e46565b600c6020526000908152604090208054600182015460028301805492936001600160a01b0390921692610a8c90611e46565b6000818152600c60205260409020600101546001600160a01b03163303610ff257600080fd5b6000908152600c602090815260408220600701805460018101825590835291200180546001600160a01b03191633179055565b60408051610120810182526001805482526002546001600160a01b0316602083015260038054600094859493929084019161105f90611e46565b80601f016020809104026020016040519081016040528092919081815260200182805461108b90611e46565b80156110d85780601f106110ad576101008083540402835291602001916110d8565b820191906000526020600020905b8154815290600101906020018083116110bb57829003601f168201915b505050505081526020016003820180546110f190611e46565b80601f016020809104026020016040519081016040528092919081815260200182805461111d90611e46565b801561116a5780601f1061113f5761010080835404028352916020019161116a565b820191906000526020600020905b81548152906001019060200180831161114d57829003601f168201915b5050505050815260200160048201805461118390611e46565b80601f01602080910402602001604051908101604052809291908181526020018280546111af90611e46565b80156111fc5780601f106111d1576101008083540402835291602001916111fc565b820191906000526020600020905b8154815290600101906020018083116111df57829003601f168201915b50505050508152602001600582015481526020016006820160009054906101000a90046001600160a01b03166001600160a01b03166001600160a01b031681526020016007820180548060200260200160405190810160405280929190818152602001828054801561129757602002820191906000526020600020905b81546001600160a01b03168152600190910190602001808311611279575b50505091835250506008919091015460209182015260408201889052606082018790526080820186905260a0820185905242610100830152339082015260008054808352919250806112e883611e96565b909155505080516000908152600b602090815260408083208054336001600160a01b03199182161790915584518452600c83529281902084518155828501516001820180549095166001600160a01b03909116179093558301518051849392611358926002850192910190611921565b5060608201518051611374916003840191602090910190611921565b5060808201518051611390916004840191602090910190611921565b5060a0820151600582015560c08201516006820180546001600160a01b0319166001600160a01b0390921691909117905560e082015180516113dc916007840191602090910190611995565b506101009190910151600890910155336000908152600a602090815260408083208054600180820183559185529383902085516009909502019384558483015190840180546001600160a01b0319166001600160a01b039092169190911790558301518051849392611455926002850192910190611921565b5060608201518051611471916003840191602090910190611921565b506080820151805161148d916004840191602090910190611921565b5060a0820151600582015560c08201516006820180546001600160a01b0319166001600160a01b0390921691909117905560e082015180516114d9916007840191602090910190611995565b5061010091909101516008909101555195945050505050565b6000818152600b60205260409020546001600160a01b0316331461151557600080fd5b60005b336000908152600a602052604090205481101561072857336000908152600a6020526040902080548290811061155057611550611e03565b90600052602060002090600902016000015482036117ea57336000908152600a60205260409020805461158590600190611e2f565b8154811061159557611595611e03565b9060005260206000209060090201600a6000336001600160a01b03166001600160a01b0316815260200190815260200160002082815481106115d9576115d9611e03565b60009182526020909120825460099092020190815560018083015490820180546001600160a01b0319166001600160a01b03909216919091179055600280830180549183019161162890611e46565b6116339291906117fc565b50600382018160030190805461164890611e46565b6116539291906117fc565b50600482018160040190805461166890611e46565b6116739291906117fc565b506005828101549082015560068083015490820180546001600160a01b0319166001600160a01b03909216919091179055600780830180546116b89284019190611887565b50600891820154910155336000908152600a602052604090208054806116e0576116e0611e80565b6000828152602081206009600019909301928302018181556001810180546001600160a01b03191690559061171860028301826118c6565b6117266003830160006118c6565b6117346004830160006118c6565b6000600583018190556006830180546001600160a01b031916905561175d906007840190611903565b5060006008919091018190559155828152600c602052604081208181556001810180546001600160a01b03191690559061179a60028301826118c6565b6117a86003830160006118c6565b6117b66004830160006118c6565b6000600583018190556006830180546001600160a01b03191690556117df906007840190611903565b600882016000905550505b806117f481611e96565b915050611518565b82805461180890611e46565b90600052602060002090601f01602090048101928261182a5760008555611877565b82601f1061183b5780548555611877565b8280016001018555821561187757600052602060002091601f016020900482015b8281111561187757825482559160010191906001019061185c565b506118839291506119ea565b5090565b8280548282559060005260206000209081019282156118775760005260206000209182018281111561187757825482559160010191906001019061185c565b5080546118d290611e46565b6000825580601f106118e2575050565b601f01602090049060005260206000209081019061190091906119ea565b50565b508054600082559060005260206000209081019061190091906119ea565b82805461192d90611e46565b90600052602060002090601f01602090048101928261194f5760008555611877565b82601f1061196857805160ff1916838001178555611877565b82800160010185558215611877579182015b8281111561187757825182559160200191906001019061197a565b828054828255906000526020600020908101928215611877579160200282015b8281111561187757825182546001600160a01b0319166001600160a01b039091161782556020909201916001909101906119b5565b5b8082111561188357600081556001016119eb565b600060208284031215611a1157600080fd5b5035919050565b80356001600160a01b0381168114611a2f57600080fd5b919050565b60008060408385031215611a4757600080fd5b82359150611a5760208401611a18565b90509250929050565b6000815180845260005b81811015611a8657602081850181015186830182015201611a6a565b81811115611a98576000602083870101525b50601f01601f19169290920160200192915050565b600081518084526020808501945080840160005b83811015611ae65781516001600160a01b031687529582019590820190600101611ac1565b509495945050505050565b6000610120825184526020830151611b1460208601826001600160a01b03169052565b506040830151816040860152611b2c82860182611a60565b91505060608301518482036060860152611b468282611a60565b91505060808301518482036080860152611b608282611a60565b91505060a083015160a085015260c0830151611b8760c08601826001600160a01b03169052565b5060e083015184820360e0860152611b9f8282611aad565b610100948501519590940194909452509092915050565b6000602080830181845280855180835260408601915060408160051b870101925083870160005b82811015611c0b57603f19888603018452611bf9858351611af1565b94509285019290850190600101611bdd565b5092979650505050505050565b8881526001600160a01b03888116602083015261010060408301819052600091611c448483018b611a60565b91508382036060850152611c58828a611a60565b91508382036080850152611c6c8289611a60565b60a08501979097529490941660c08301525060e001525095945050505050565b602081526000611c9f6020830184611af1565b9392505050565b60008060408385031215611cb957600080fd5b611cc283611a18565b946020939093013593505050565b634e487b7160e01b600052604160045260246000fd5b600082601f830112611cf757600080fd5b813567ffffffffffffffff80821115611d1257611d12611cd0565b604051601f8301601f19908116603f01168101908282118183101715611d3a57611d3a611cd0565b81604052838152866020858801011115611d5357600080fd5b836020870160208301376000602085830101528094505050505092915050565b60008060008060808587031215611d8957600080fd5b843567ffffffffffffffff80821115611da157600080fd5b611dad88838901611ce6565b95506020870135915080821115611dc357600080fd5b611dcf88838901611ce6565b94506040870135915080821115611de557600080fd5b50611df287828801611ce6565b949793965093946060013593505050565b634e487b7160e01b600052603260045260246000fd5b634e487b7160e01b600052601160045260246000fd5b600082821015611e4157611e41611e19565b500390565b600181811c90821680611e5a57607f821691505b602082108103611e7a57634e487b7160e01b600052602260045260246000fd5b50919050565b634e487b7160e01b600052603160045260246000fd5b600060018201611ea857611ea8611e19565b506001019056fea2646970667358221220d4d7c5597fd62f0d54e8ddba35b22515bc5c6fc2c8607441c03cc81503d46b6564736f6c634300080d0033","bytecodeSha1":"8ca6998b6f3fb22d2294d1a19e8998bfc5f3ece7","compiler":{"evm_version":"istanbul","optimizer":{"enabled":true,"runs":200},"version":"0.8.13+commit.abaa5c0e"},"contractName":"NFT_Market","language":"Solidity","natspec":{"kind":"dev","methods":{},"version":1},"opcodes":"PUSH1 0x80 PUSH1 0x40 MSTORE PUSH1 0x4 CALLDATASIZE LT PUSH2 0xA7 JUMPI PUSH1 0x0 CALLDATALOAD PUSH1 0xE0 SHR DUP1 PUSH4 0x690A15F5 GT PUSH2 0x64 JUMPI DUP1 PUSH4 0x690A15F5 EQ PUSH2 0x18E JUMPI DUP1 PUSH4 0x6D148F84 EQ PUSH2 0x1AE JUMPI DUP1 PUSH4 0x6E9E48EF EQ PUSH2 0x1CE JUMPI DUP1 PUSH4 0x6F5395F2 EQ PUSH2 0x21C JUMPI DUP1 PUSH4 0xC40412B5 EQ PUSH2 0x24A JUMPI DUP1 PUSH4 0xD082E381 EQ PUSH2 0x26A JUMPI PUSH1 0x0 DUP1 REVERT JUMPDEST DUP1 PUSH4 0x150BDE03 EQ PUSH2 0xAC JUMPI DUP1 PUSH4 0x1905AC80 EQ PUSH2 0xC1 JUMPI DUP1 PUSH4 0x227212F2 EQ PUSH2 0xF6 JUMPI DUP1 PUSH4 0x47CCCA02 EQ PUSH2 0x118 JUMPI DUP1 PUSH4 0x576F7EA7 EQ PUSH2 0x141 JUMPI DUP1 PUSH4 0x6160BD1A EQ PUSH2 0x16E JUMPI JUMPDEST PUSH1 0x0 DUP1 REVERT JUMPDEST PUSH2 0xBF PUSH2 0xBA CALLDATASIZE PUSH1 0x4 PUSH2 0x19FF JUMP JUMPDEST PUSH2 0x280 JUMP JUMPDEST STOP JUMPDEST CALLVALUE DUP1 ISZERO PUSH2 0xCD JUMPI PUSH1 0x0 DUP1 REVERT JUMPDEST POP PUSH2 0xE1 PUSH2 0xDC CALLDATASIZE PUSH1 0x4 PUSH2 0x1A34 JUMP JUMPDEST PUSH2 0x72C JUMP JUMPDEST PUSH1 0x40 MLOAD SWAP1 ISZERO ISZERO DUP2 MSTORE PUSH1 0x20 ADD JUMPDEST PUSH1 0x40 MLOAD DUP1 SWAP2 SUB SWAP1 RETURN JUMPDEST CALLVALUE DUP1 ISZERO PUSH2 0x102 JUMPI PUSH1 0x0 DUP1 REVERT JUMPDEST POP PUSH2 0x10B PUSH2 0x784 JUMP JUMPDEST PUSH1 0x40 MLOAD PUSH2 0xED SWAP2 SWAP1 PUSH2 0x1BB6 JUMP JUMPDEST CALLVALUE DUP1 ISZERO PUSH2 0x124 JUMPI PUSH1 0x0 DUP1 REVERT JUMPDEST POP PUSH2 0x12D PUSH2 0xA6A JUMP JUMPDEST PUSH1 0x40 MLOAD PUSH2 0xED SWAP9 SWAP8 SWAP7 SWAP6 SWAP5 SWAP4 SWAP3 SWAP2 SWAP1 PUSH2 0x1C18 JUMP JUMPDEST CALLVALUE DUP1 ISZERO PUSH2 0x14D JUMPI PUSH1 0x0 DUP1 REVERT JUMPDEST POP PUSH2 0x161 PUSH2 0x15C CALLDATASIZE PUSH1 0x4 PUSH2 0x19FF JUMP JUMPDEST PUSH2 0xC49 JUMP JUMPDEST PUSH1 0x40 MLOAD PUSH2 0xED SWAP2 SWAP1 PUSH2 0x1C8C JUMP JUMPDEST CALLVALUE DUP1 ISZERO PUSH2 0x17A JUMPI PUSH1 0x0 DUP1 REVERT JUMPDEST POP PUSH2 0x12D PUSH2 0x189 CALLDATASIZE PUSH1 0x4 PUSH2 0x1CA6 JUMP JUMPDEST PUSH2 0xF47 JUMP JUMPDEST CALLVALUE DUP1 ISZERO PUSH2 0x19A JUMPI PUSH1 0x0 DUP1 REVERT JUMPDEST POP PUSH2 0x12D PUSH2 0x1A9 CALLDATASIZE PUSH1 0x4 PUSH2 0x19FF JUMP JUMPDEST PUSH2 0xF9A JUMP JUMPDEST CALLVALUE DUP1 ISZERO PUSH2 0x1BA JUMPI PUSH1 0x0 DUP1 REVERT JUMPDEST POP PUSH2 0xBF PUSH2 0x1C9 CALLDATASIZE PUSH1 0x4 PUSH2 0x19FF JUMP JUMPDEST PUSH2 0xFCC JUMP JUMPDEST CALLVALUE DUP1 ISZERO PUSH2 0x1DA JUMPI PUSH1 0x0 DUP1 REVERT JUMPDEST POP PUSH2 0x204 PUSH2 0x1E9 CALLDATASIZE PUSH1 0x4 PUSH2 0x19FF JUMP JUMPDEST PUSH1 0xB PUSH1 0x20 MSTORE PUSH1 0x0 SWAP1 DUP2 MSTORE PUSH1 0x40 SWAP1 KECCAK256 SLOAD PUSH1 0x1 PUSH1 0x1 PUSH1 0xA0 SHL SUB AND DUP2 JUMP JUMPDEST PUSH1 0x40 MLOAD PUSH1 0x1 PUSH1 0x1 PUSH1 0xA0 SHL SUB SWAP1 SWAP2 AND DUP2 MSTORE PUSH1 0x20 ADD PUSH2 0xED JUMP JUMPDEST CALLVALUE DUP1 ISZERO PUSH2 0x228 JUMPI PUSH1 0x0 DUP1 REVERT JUMPDEST POP PUSH2 0x23C PUSH2 0x237 CALLDATASIZE PUSH1 0x4 PUSH2 0x1D73 JUMP JUMPDEST PUSH2 0x1025 JUMP JUMPDEST PUSH1 0x40 MLOAD SWAP1 DUP2 MSTORE PUSH1 0x20 ADD PUSH2 0xED JUMP JUMPDEST CALLVALUE DUP1 ISZERO PUSH2 0x256 JUMPI PUSH1 0x0 DUP1 REVERT JUMPDEST POP PUSH2 0xBF PUSH2 0x265 CALLDATASIZE PUSH1 0x4 PUSH2 0x19FF JUMP JUMPDEST PUSH2 0x14F2 JUMP JUMPDEST CALLVALUE DUP1 ISZERO PUSH2 0x276 JUMPI PUSH1 0x0 DUP1 REVERT JUMPDEST POP PUSH2 0x23C PUSH1 0x0 SLOAD DUP2 JUMP JUMPDEST PUSH1 0x0 DUP2 DUP2 MSTORE PUSH1 0xB PUSH1 0x20 MSTORE PUSH1 0x40 SWAP1 KECCAK256 SLOAD PUSH1 0x1 PUSH1 0x1 PUSH1 0xA0 SHL SUB AND CALLER SUB PUSH2 0x2A3 JUMPI PUSH1 0x0 DUP1 REVERT JUMPDEST PUSH1 0x0 JUMPDEST PUSH1 0x0 DUP3 DUP2 MSTORE PUSH1 0xB PUSH1 0x20 SWAP1 DUP2 MSTORE PUSH1 0x40 DUP1 DUP4 KECCAK256 SLOAD PUSH1 0x1 PUSH1 0x1 PUSH1 0xA0 SHL SUB AND DUP4 MSTORE PUSH1 0xA SWAP1 SWAP2 MSTORE SWAP1 KECCAK256 SLOAD DUP2 LT ISZERO PUSH2 0x728 JUMPI PUSH1 0x0 DUP3 DUP2 MSTORE PUSH1 0xB PUSH1 0x20 SWAP1 DUP2 MSTORE PUSH1 0x40 DUP1 DUP4 KECCAK256 SLOAD PUSH1 0x1 PUSH1 0x1 PUSH1 0xA0 SHL SUB AND DUP4 MSTORE PUSH1 0xA SWAP1 SWAP2 MSTORE SWAP1 KECCAK256 DUP1 SLOAD DUP3 SWAP1 DUP2 LT PUSH2 0x308 JUMPI PUSH2 0x308 PUSH2 0x1E03 JUMP JUMPDEST SWAP1 PUSH1 0x0 MSTORE PUSH1 0x20 PUSH1 0x0 KECCAK256 SWAP1 PUSH1 0x9 MUL ADD PUSH1 0x0 ADD SLOAD DUP3 SUB PUSH2 0x716 JUMPI PUSH1 0x0 DUP3 DUP2 MSTORE PUSH1 0xC PUSH1 0x20 MSTORE PUSH1 0x40 SWAP1 KECCAK256 PUSH1 0x5 ADD SLOAD CALLVALUE EQ PUSH2 0x37B JUMPI PUSH1 0x40 MLOAD PUSH3 0x461BCD PUSH1 0xE5 SHL DUP2 MSTORE PUSH1 0x20 PUSH1 0x4 DUP3 ADD MSTORE PUSH1 0x14 PUSH1 0x24 DUP3 ADD MSTORE PUSH20 0x54686520616D6F756E742069732077726F6E6721 PUSH1 0x60 SHL PUSH1 0x44 DUP3 ADD MSTORE PUSH1 0x64 ADD PUSH1 0x40 MLOAD DUP1 SWAP2 SUB SWAP1 REVERT JUMPDEST PUSH1 0x0 DUP3 DUP2 MSTORE PUSH1 0xB PUSH1 0x20 MSTORE PUSH1 0x40 DUP1 DUP3 KECCAK256 SLOAD SWAP1 MLOAD PUSH1 0x1 PUSH1 0x1 PUSH1 0xA0 SHL SUB SWAP1 SWAP2 AND SWAP2 CALLVALUE DUP1 ISZERO PUSH2 0x8FC MUL SWAP3 SWAP1 SWAP2 DUP2 DUP2 DUP2 DUP6 DUP9 DUP9 CALL SWAP4 POP POP POP POP ISZERO DUP1 ISZERO PUSH2 0x3C0 JUMPI RETURNDATASIZE PUSH1 0x0 DUP1 RETURNDATACOPY RETURNDATASIZE PUSH1 0x0 REVERT JUMPDEST POP PUSH1 0x0 DUP3 DUP2 MSTORE PUSH1 0xB PUSH1 0x20 SWAP1 DUP2 MSTORE PUSH1 0x40 DUP1 DUP4 KECCAK256 SLOAD PUSH1 0x1 PUSH1 0x1 PUSH1 0xA0 SHL SUB AND DUP4 MSTORE PUSH1 0xA SWAP1 SWAP2 MSTORE SWAP1 KECCAK256 DUP1 SLOAD PUSH2 0x3F3 SWAP1 PUSH1 0x1 SWAP1 PUSH2 0x1E2F JUMP JUMPDEST DUP2 SLOAD DUP2 LT PUSH2 0x403 JUMPI PUSH2 0x403 PUSH2 0x1E03 JUMP JUMPDEST PUSH1 0x0 SWAP2 DUP3 MSTORE PUSH1 0x20 DUP1 DUP4 KECCAK256 DUP6 DUP5 MSTORE PUSH1 0xB DUP3 MSTORE PUSH1 0x40 DUP1 DUP6 KECCAK256 SLOAD PUSH1 0x1 PUSH1 0x1 PUSH1 0xA0 SHL SUB AND DUP6 MSTORE PUSH1 0xA SWAP1 SWAP3 MSTORE SWAP3 KECCAK256 DUP1 SLOAD PUSH1 0x9 SWAP1 SWAP3 MUL SWAP1 SWAP3 ADD SWAP2 SWAP1 DUP4 SWAP1 DUP2 LT PUSH2 0x448 JUMPI PUSH2 0x448 PUSH2 0x1E03 JUMP JUMPDEST PUSH1 0x0 SWAP2 DUP3 MSTORE PUSH1 0x20 SWAP1 SWAP2 KECCAK256 DUP3 SLOAD PUSH1 0x9 SWAP1 SWAP3 MUL ADD SWAP1 DUP2 SSTORE PUSH1 0x1 DUP1 DUP4 ADD SLOAD SWAP1 DUP3 ADD DUP1 SLOAD PUSH1 0x1 PUSH1 0x1 PUSH1 0xA0 SHL SUB NOT AND PUSH1 0x1 PUSH1 0x1 PUSH1 0xA0 SHL SUB SWAP1 SWAP3 AND SWAP2 SWAP1 SWAP2 OR SWAP1 SSTORE PUSH1 0x2 DUP1 DUP4 ADD DUP1 SLOAD SWAP2 DUP4 ADD SWAP2 PUSH2 0x497 SWAP1 PUSH2 0x1E46 JUMP JUMPDEST PUSH2 0x4A2 SWAP3 SWAP2 SWAP1 PUSH2 0x17FC JUMP JUMPDEST POP PUSH1 0x3 DUP3 ADD DUP2 PUSH1 0x3 ADD SWAP1 DUP1 SLOAD PUSH2 0x4B7 SWAP1 PUSH2 0x1E46 JUMP JUMPDEST PUSH2 0x4C2 SWAP3 SWAP2 SWAP1 PUSH2 0x17FC JUMP JUMPDEST POP PUSH1 0x4 DUP3 ADD DUP2 PUSH1 0x4 ADD SWAP1 DUP1 SLOAD PUSH2 0x4D7 SWAP1 PUSH2 0x1E46 JUMP JUMPDEST PUSH2 0x4E2 SWAP3 SWAP2 SWAP1 PUSH2 0x17FC JUMP JUMPDEST POP PUSH1 0x5 DUP3 DUP2 ADD SLOAD SWAP1 DUP3 ADD SSTORE PUSH1 0x6 DUP1 DUP4 ADD SLOAD SWAP1 DUP3 ADD DUP1 SLOAD PUSH1 0x1 PUSH1 0x1 PUSH1 0xA0 SHL SUB NOT AND PUSH1 0x1 PUSH1 0x1 PUSH1 0xA0 SHL SUB SWAP1 SWAP3 AND SWAP2 SWAP1 SWAP2 OR SWAP1 SSTORE PUSH1 0x7 DUP1 DUP4 ADD DUP1 SLOAD PUSH2 0x527 SWAP3 DUP5 ADD SWAP2 SWAP1 PUSH2 0x1887 JUMP JUMPDEST POP PUSH1 0x8 SWAP2 DUP3 ADD SLOAD SWAP2 ADD SSTORE PUSH1 0x0 DUP3 DUP2 MSTORE PUSH1 0xB PUSH1 0x20 SWAP1 DUP2 MSTORE PUSH1 0x40 DUP1 DUP4 KECCAK256 SLOAD PUSH1 0x1 PUSH1 0x1 PUSH1 0xA0 SHL SUB AND DUP4 MSTORE PUSH1 0xA SWAP1 SWAP2 MSTORE SWAP1 KECCAK256 DUP1 SLOAD DUP1 PUSH2 0x564 JUMPI PUSH2 0x564 PUSH2 0x1E80 JUMP JUMPDEST PUSH1 0x0 DUP3 DUP2 MSTORE PUSH1 0x20 DUP2 KECCAK256 PUSH1 0x9 PUSH1 0x0 NOT SWAP1 SWAP4 ADD SWAP3 DUP4 MUL ADD DUP2 DUP2 SSTORE PUSH1 0x1 DUP2 ADD DUP1 SLOAD PUSH1 0x1 PUSH1 0x1 PUSH1 0xA0 SHL SUB NOT AND SWAP1 SSTORE SWAP1 PUSH2 0x59C PUSH1 0x2 DUP4 ADD DUP3 PUSH2 0x18C6 JUMP JUMPDEST PUSH2 0x5AA PUSH1 0x3 DUP4 ADD PUSH1 0x0 PUSH2 0x18C6 JUMP JUMPDEST PUSH2 0x5B8 PUSH1 0x4 DUP4 ADD PUSH1 0x0 PUSH2 0x18C6 JUMP JUMPDEST PUSH1 0x0 PUSH1 0x5 DUP4 ADD DUP2 SWAP1 SSTORE PUSH1 0x6 DUP4 ADD DUP1 SLOAD PUSH1 0x1 PUSH1 0x1 PUSH1 0xA0 SHL SUB NOT AND SWAP1 SSTORE PUSH2 0x5E1 SWAP1 PUSH1 0x7 DUP5 ADD SWAP1 PUSH2 0x1903 JUMP JUMPDEST POP PUSH1 0x0 PUSH1 0x8 SWAP2 SWAP1 SWAP2 ADD DUP2 SWAP1 SSTORE SWAP2 SSTORE DUP3 DUP2 MSTORE PUSH1 0xC PUSH1 0x20 DUP2 DUP2 MSTORE PUSH1 0x40 DUP1 DUP5 KECCAK256 PUSH1 0x1 DUP1 DUP3 ADD DUP1 SLOAD CALLER PUSH1 0x1 PUSH1 0x1 PUSH1 0xA0 SHL SUB NOT SWAP2 DUP3 AND DUP2 OR DUP4 SSTORE PUSH1 0xB DUP8 MSTORE DUP6 DUP10 KECCAK256 DUP1 SLOAD DUP4 AND DUP3 OR SWAP1 SSTORE DUP9 MSTORE PUSH1 0xA DUP7 MSTORE SWAP4 DUP8 KECCAK256 SWAP6 DUP6 MSTORE DUP6 SLOAD DUP1 DUP4 ADD DUP8 SSTORE SWAP6 DUP8 MSTORE SWAP4 SWAP1 SWAP6 KECCAK256 DUP2 SLOAD PUSH1 0x9 SWAP1 SWAP6 MUL ADD SWAP4 DUP5 SSTORE SWAP2 SLOAD SWAP4 DUP4 ADD DUP1 SLOAD PUSH1 0x1 PUSH1 0x1 PUSH1 0xA0 SHL SUB SWAP1 SWAP6 AND SWAP5 SWAP1 SWAP2 AND SWAP4 SWAP1 SWAP4 OR SWAP1 SWAP3 SSTORE PUSH1 0x2 DUP1 DUP4 ADD DUP1 SLOAD SWAP2 DUP4 ADD SWAP2 PUSH2 0x67B SWAP1 PUSH2 0x1E46 JUMP JUMPDEST PUSH2 0x686 SWAP3 SWAP2 SWAP1 PUSH2 0x17FC JUMP JUMPDEST POP PUSH1 0x3 DUP3 ADD DUP2 PUSH1 0x3 ADD SWAP1 DUP1 SLOAD PUSH2 0x69B SWAP1 PUSH2 0x1E46 JUMP JUMPDEST PUSH2 0x6A6 SWAP3 SWAP2 SWAP1 PUSH2 0x17FC JUMP JUMPDEST POP PUSH1 0x4 DUP3 ADD DUP2 PUSH1 0x4 ADD SWAP1 DUP1 SLOAD PUSH2 0x6BB SWAP1 PUSH2 0x1E46 JUMP JUMPDEST PUSH2 0x6C6 SWAP3 SWAP2 SWAP1 PUSH2 0x17FC JUMP JUMPDEST POP PUSH1 0x5 DUP3 DUP2 ADD SLOAD SWAP1 DUP3 ADD SSTORE PUSH1 0x6 DUP1 DUP4 ADD SLOAD SWAP1 DUP3 ADD DUP1 SLOAD PUSH1 0x1 PUSH1 0x1 PUSH1 0xA0 SHL SUB NOT AND PUSH1 0x1 PUSH1 0x1 PUSH1 0xA0 SHL SUB SWAP1 SWAP3 AND SWAP2 SWAP1 SWAP2 OR SWAP1 SSTORE PUSH1 0x7 DUP1 DUP4 ADD DUP1 SLOAD PUSH2 0x70B SWAP3 DUP5 ADD SWAP2 SWAP1 PUSH2 0x1887 JUMP JUMPDEST POP PUSH1 0x8 SWAP2 DUP3 ADD SLOAD SWAP2 ADD SSTORE JUMPDEST DUP1 PUSH2 0x720 DUP2 PUSH2 0x1E96 JUMP JUMPDEST SWAP2 POP POP PUSH2 0x2A6 JUMP JUMPDEST POP POP JUMP JUMPDEST PUSH1 0x0 DUP3 DUP2 MSTORE PUSH1 0xB PUSH1 0x20 MSTORE PUSH1 0x40 DUP2 KECCAK256 SLOAD PUSH1 0x1 PUSH1 0x1 PUSH1 0xA0 SHL SUB AND CALLER EQ PUSH2 0x74F JUMPI PUSH1 0x0 DUP1 REVERT JUMPDEST POP PUSH1 0x0 DUP3 DUP2 MSTORE PUSH1 0xC PUSH1 0x20 MSTORE PUSH1 0x40 SWAP1 KECCAK256 PUSH1 0x1 SWAP1 DUP2 ADD DUP1 SLOAD PUSH1 0x1 PUSH1 0x1 PUSH1 0xA0 SHL SUB DUP5 AND PUSH1 0x1 PUSH1 0x1 PUSH1 0xA0 SHL SUB NOT SWAP1 SWAP2 AND OR SWAP1 SSTORE SWAP3 SWAP2 POP POP JUMP JUMPDEST CALLER PUSH1 0x0 SWAP1 DUP2 MSTORE PUSH1 0xA PUSH1 0x20 SWAP1 DUP2 MSTORE PUSH1 0x40 DUP1 DUP4 KECCAK256 DUP1 SLOAD DUP3 MLOAD DUP2 DUP6 MUL DUP2 ADD DUP6 ADD SWAP1 SWAP4 MSTORE DUP1 DUP4 MSTORE PUSH1 0x60 SWAP5 SWAP3 SWAP4 SWAP2 SWAP3 SWAP1 SWAP2 DUP5 ADD JUMPDEST DUP3 DUP3 LT ISZERO PUSH2 0xA61 JUMPI PUSH1 0x0 DUP5 DUP2 MSTORE PUSH1 0x20 SWAP1 DUP2 SWAP1 KECCAK256 PUSH1 0x40 DUP1 MLOAD PUSH2 0x120 DUP2 ADD DUP3 MSTORE PUSH1 0x9 DUP7 MUL SWAP1 SWAP3 ADD DUP1 SLOAD DUP4 MSTORE PUSH1 0x1 DUP2 ADD SLOAD PUSH1 0x1 PUSH1 0x1 PUSH1 0xA0 SHL SUB AND SWAP4 DUP4 ADD SWAP4 SWAP1 SWAP4 MSTORE PUSH1 0x2 DUP4 ADD DUP1 SLOAD SWAP3 SWAP4 SWAP3 SWAP2 DUP5 ADD SWAP2 PUSH2 0x807 SWAP1 PUSH2 0x1E46 JUMP JUMPDEST DUP1 PUSH1 0x1F ADD PUSH1 0x20 DUP1 SWAP2 DIV MUL PUSH1 0x20 ADD PUSH1 0x40 MLOAD SWAP1 DUP2 ADD PUSH1 0x40 MSTORE DUP1 SWAP3 SWAP2 SWAP1 DUP2 DUP2 MSTORE PUSH1 0x20 ADD DUP3 DUP1 SLOAD PUSH2 0x833 SWAP1 PUSH2 0x1E46 JUMP JUMPDEST DUP1 ISZERO PUSH2 0x880 JUMPI DUP1 PUSH1 0x1F LT PUSH2 0x855 JUMPI PUSH2 0x100 DUP1 DUP4 SLOAD DIV MUL DUP4 MSTORE SWAP2 PUSH1 0x20 ADD SWAP2 PUSH2 0x880 JUMP JUMPDEST DUP3 ADD SWAP2 SWAP1 PUSH1 0x0 MSTORE PUSH1 0x20 PUSH1 0x0 KECCAK256 SWAP1 JUMPDEST DUP2 SLOAD DUP2 MSTORE SWAP1 PUSH1 0x1 ADD SWAP1 PUSH1 0x20 ADD DUP1 DUP4 GT PUSH2 0x863 JUMPI DUP3 SWAP1 SUB PUSH1 0x1F AND DUP3 ADD SWAP2 JUMPDEST POP POP POP POP POP DUP2 MSTORE PUSH1 0x20 ADD PUSH1 0x3 DUP3 ADD DUP1 SLOAD PUSH2 0x899 SWAP1 PUSH2 0x1E46 JUMP JUMPDEST DUP1 PUSH1 0x1F ADD PUSH1 0x20 DUP1 SWAP2 DIV MUL PUSH1 0x20 ADD PUSH1 0x40 MLOAD SWAP1 DUP2 ADD PUSH1 0x40 MSTORE DUP1 SWAP3 SWAP2 SWAP1 DUP2 DUP2 MSTORE PUSH1 0x20 ADD DUP3 DUP1 SLOAD PUSH2 0x8C5 SWAP1 PUSH2 0x1E46 JUMP JUMPDEST DUP1 ISZERO PUSH2 0x912 JUMPI DUP1 PUSH1 0x1F LT PUSH2 0x8E7 JUMPI PUSH2 0x100 DUP1 DUP4 SLOAD DIV MUL DUP4 MSTORE SWAP2 PUSH1 0x20 ADD SWAP2 PUSH2 0x912 JUMP JUMPDEST DUP3 ADD SWAP2 SWAP1 PUSH1 0x0 MSTORE PUSH1 0x20 PUSH1 0x0 KECCAK256 SWAP1 JUMPDEST DUP2 SLOAD DUP2 MSTORE SWAP1 PUSH1 0x1 ADD SWAP1 PUSH1 0x20 ADD DUP1 DUP4 GT PUSH2 0x8F5 JUMPI DUP3 SWAP1 SUB PUSH1 0x1F AND DUP3 ADD SWAP2 JUMPDEST POP POP POP POP POP DUP2 MSTORE PUSH1 0x20 ADD PUSH1 0x4 DUP3 ADD DUP1 SLOAD PUSH2 0x92B SWAP1 PUSH2 0x1E46 JUMP JUMPDEST DUP1 PUSH1 0x1F ADD PUSH1 0x20 DUP1 SWAP2 DIV MUL PUSH1 0x20 ADD PUSH1 0x40 MLOAD SWAP1 DUP2 ADD PUSH1 0x40 MSTORE DUP1 SWAP3 SWAP2 SWAP1 DUP2 DUP2 MSTORE PUSH1 0x20 ADD DUP3 DUP1 SLOAD PUSH2 0x957 SWAP1 PUSH2 0x1E46 JUMP JUMPDEST DUP1 ISZERO PUSH2 0x9A4 JUMPI DUP1 PUSH1 0x1F LT PUSH2 0x979 JUMPI PUSH2 0x100 DUP1 DUP4 SLOAD DIV MUL DUP4 MSTORE SWAP2 PUSH1 0x20 ADD SWAP2 PUSH2 0x9A4 JUMP JUMPDEST DUP3 ADD SWAP2 SWAP1 PUSH1 0x0 MSTORE PUSH1 0x20 PUSH1 0x0 KECCAK256 SWAP1 JUMPDEST DUP2 SLOAD DUP2 MSTORE SWAP1 PUSH1 0x1 ADD SWAP1 PUSH1 0x20 ADD DUP1 DUP4 GT PUSH2 0x987 JUMPI DUP3 SWAP1 SUB PUSH1 0x1F AND DUP3 ADD SWAP2 JUMPDEST POP POP POP POP POP DUP2 MSTORE PUSH1 0x20 ADD PUSH1 0x5 DUP3 ADD SLOAD DUP2 MSTORE PUSH1 0x20 ADD PUSH1 0x6 DUP3 ADD PUSH1 0x0 SWAP1 SLOAD SWAP1 PUSH2 0x100 EXP SWAP1 DIV PUSH1 0x1 PUSH1 0x1 PUSH1 0xA0 SHL SUB AND PUSH1 0x1 PUSH1 0x1 PUSH1 0xA0 SHL SUB AND PUSH1 0x1 PUSH1 0x1 PUSH1 0xA0 SHL SUB AND DUP2 MSTORE PUSH1 0x20 ADD PUSH1 0x7 DUP3 ADD DUP1 SLOAD DUP1 PUSH1 0x20 MUL PUSH1 0x20 ADD PUSH1 0x40 MLOAD SWAP1 DUP2 ADD PUSH1 0x40 MSTORE DUP1 SWAP3 SWAP2 SWAP1 DUP2 DUP2 MSTORE PUSH1 0x20 ADD DUP3 DUP1 SLOAD DUP1 ISZERO PUSH2 0xA3F JUMPI PUSH1 0x20 MUL DUP3 ADD SWAP2 SWAP1 PUSH1 0x0 MSTORE PUSH1 0x20 PUSH1 0x0 KECCAK256 SWAP1 JUMPDEST DUP2 SLOAD PUSH1 0x1 PUSH1 0x1 PUSH1 0xA0 SHL SUB AND DUP2 MSTORE PUSH1 0x1 SWAP1 SWAP2 ADD SWAP1 PUSH1 0x20 ADD DUP1 DUP4 GT PUSH2 0xA21 JUMPI JUMPDEST POP POP POP POP POP DUP2 MSTORE PUSH1 0x20 ADD PUSH1 0x8 DUP3 ADD SLOAD DUP2 MSTORE POP POP DUP2 MSTORE PUSH1 0x20 ADD SWAP1 PUSH1 0x1 ADD SWAP1 PUSH2 0x7B3 JUMP JUMPDEST POP POP POP POP SWAP1 POP SWAP1 JUMP JUMPDEST PUSH1 0x1 DUP1 SLOAD PUSH1 0x2 SLOAD PUSH1 0x3 DUP1 SLOAD SWAP3 SWAP4 PUSH1 0x1 PUSH1 0x1 PUSH1 0xA0 SHL SUB SWAP1 SWAP3 AND SWAP3 PUSH2 0xA8C SWAP1 PUSH2 0x1E46 JUMP JUMPDEST DUP1 PUSH1 0x1F ADD PUSH1 0x20 DUP1 SWAP2 DIV MUL PUSH1 0x20 ADD PUSH1 0x40 MLOAD SWAP1 DUP2 ADD PUSH1 0x40 MSTORE DUP1 SWAP3 SWAP2 SWAP1 DUP2 DUP2 MSTORE PUSH1 0x20 ADD DUP3 DUP1 SLOAD PUSH2 0xAB8 SWAP1 PUSH2 0x1E46 JUMP JUMPDEST DUP1 ISZERO PUSH2 0xB05 JUMPI DUP1 PUSH1 0x1F LT PUSH2 0xADA JUMPI PUSH2 0x100 DUP1 DUP4 SLOAD DIV MUL DUP4 MSTORE SWAP2 PUSH1 0x20 ADD SWAP2 PUSH2 0xB05 JUMP JUMPDEST DUP3 ADD SWAP2 SWAP1 PUSH1 0x0 MSTORE PUSH1 0x20 PUSH1 0x0 KECCAK256 SWAP1 JUMPDEST DUP2 SLOAD DUP2 MSTORE SWAP1 PUSH1 0x1 ADD SWAP1 PUSH1 0x20 ADD DUP1 DUP4 GT PUSH2 0xAE8 JUMPI DUP3 SWAP1 SUB PUSH1 0x1F AND DUP3 ADD SWAP2 JUMPDEST POP POP POP POP POP SWAP1 DUP1 PUSH1 0x3 ADD DUP1 SLOAD PUSH2 0xB1A SWAP1 PUSH2 0x1E46 JUMP JUMPDEST DUP1 PUSH1 0x1F ADD PUSH1 0x20 DUP1 SWAP2 DIV MUL PUSH1 0x20 ADD PUSH1 0x40 MLOAD SWAP1 DUP2 ADD PUSH1 0x40 MSTORE DUP1 SWAP3 SWAP2 SWAP1 DUP2 DUP2 MSTORE PUSH1 0x20 ADD DUP3 DUP1 SLOAD PUSH2 0xB46 SWAP1 PUSH2 0x1E46 JUMP JUMPDEST DUP1 ISZERO PUSH2 0xB93 JUMPI DUP1 PUSH1 0x1F LT PUSH2 0xB68 JUMPI PUSH2 0x100 DUP1 DUP4 SLOAD DIV MUL DUP4 MSTORE SWAP2 PUSH1 0x20 ADD SWAP2 PUSH2 0xB93 JUMP JUMPDEST DUP3 ADD SWAP2 SWAP1 PUSH1 0x0 MSTORE PUSH1 0x20 PUSH1 0x0 KECCAK256 SWAP1 JUMPDEST DUP2 SLOAD DUP2 MSTORE SWAP1 PUSH1 0x1 ADD SWAP1 PUSH1 0x20 ADD DUP1 DUP4 GT PUSH2 0xB76 JUMPI DUP3 SWAP1 SUB PUSH1 0x1F AND DUP3 ADD SWAP2 JUMPDEST POP POP POP POP POP SWAP1 DUP1 PUSH1 0x4 ADD DUP1 SLOAD PUSH2 0xBA8 SWAP1 PUSH2 0x1E46 JUMP JUMPDEST DUP1 PUSH1 0x1F ADD PUSH1 0x20 DUP1 SWAP2 DIV MUL PUSH1 0x20 ADD PUSH1 0x40 MLOAD SWAP1 DUP2 ADD PUSH1 0x40 MSTORE DUP1 SWAP3 SWAP2 SWAP1 DUP2 DUP2 MSTORE PUSH1 0x20 ADD DUP3 DUP1 SLOAD PUSH2 0xBD4 SWAP1 PUSH2 0x1E46 JUMP JUMPDEST DUP1 ISZERO PUSH2 0xC21 JUMPI DUP1 PUSH1 0x1F LT PUSH2 0xBF6 JUMPI PUSH2 0x100 DUP1 DUP4 SLOAD DIV MUL DUP4 MSTORE SWAP2 PUSH1 0x20 ADD SWAP2 PUSH2 0xC21 JUMP JUMPDEST DUP3 ADD SWAP2 SWAP1 PUSH1 0x0 MSTORE PUSH1 0x20 PUSH1 0x0 KECCAK256 SWAP1 JUMPDEST DUP2 SLOAD DUP2 MSTORE SWAP1 PUSH1 0x1 ADD SWAP1 PUSH1 0x20 ADD DUP1 DUP4 GT PUSH2 0xC04 JUMPI DUP3 SWAP1 SUB PUSH1 0x1F AND DUP3 ADD SWAP2 JUMPDEST POP POP POP POP PUSH1 0x5 DUP4 ADD SLOAD PUSH1 0x6 DUP5 ADD SLOAD PUSH1 0x8 SWAP1 SWAP5 ADD SLOAD SWAP3 SWAP4 SWAP1 SWAP3 PUSH1 0x1 PUSH1 0x1 PUSH1 0xA0 SHL SUB SWAP1 SWAP2 AND SWAP2 POP DUP9 JUMP JUMPDEST PUSH2 0xCAA PUSH1 0x40 MLOAD DUP1 PUSH2 0x120 ADD PUSH1 0x40 MSTORE DUP1 PUSH1 0x0 DUP2 MSTORE PUSH1 0x20 ADD PUSH1 0x0 PUSH1 0x1 PUSH1 0x1 PUSH1 0xA0 SHL SUB AND DUP2 MSTORE PUSH1 0x20 ADD PUSH1 0x60 DUP2 MSTORE PUSH1 0x20 ADD PUSH1 0x60 DUP2 MSTORE PUSH1 0x20 ADD PUSH1 0x60 DUP2 MSTORE PUSH1 0x20 ADD PUSH1 0x0 DUP2 MSTORE PUSH1 0x20 ADD PUSH1 0x0 PUSH1 0x1 PUSH1 0x1 PUSH1 0xA0 SHL SUB AND DUP2 MSTORE PUSH1 0x20 ADD PUSH1 0x60 DUP2 MSTORE PUSH1 0x20 ADD PUSH1 0x0 DUP2 MSTORE POP SWAP1 JUMP JUMPDEST PUSH1 0x0 DUP3 DUP2 MSTORE PUSH1 0xC PUSH1 0x20 SWAP1 DUP2 MSTORE PUSH1 0x40 SWAP2 DUP3 SWAP1 KECCAK256 DUP3 MLOAD PUSH2 0x120 DUP2 ADD DUP5 MSTORE DUP2 SLOAD DUP2 MSTORE PUSH1 0x1 DUP3 ADD SLOAD PUSH1 0x1 PUSH1 0x1 PUSH1 0xA0 SHL SUB AND SWAP3 DUP2 ADD SWAP3 SWAP1 SWAP3 MSTORE PUSH1 0x2 DUP2 ADD DUP1 SLOAD SWAP3 SWAP4 SWAP2 SWAP3 SWAP2 DUP5 ADD SWAP2 PUSH2 0xCF5 SWAP1 PUSH2 0x1E46 JUMP JUMPDEST DUP1 PUSH1 0x1F ADD PUSH1 0x20 DUP1 SWAP2 DIV MUL PUSH1 0x20 ADD PUSH1 0x40 MLOAD SWAP1 DUP2 ADD PUSH1 0x40 MSTORE DUP1 SWAP3 SWAP2 SWAP1 DUP2 DUP2 MSTORE PUSH1 0x20 ADD DUP3 DUP1 SLOAD PUSH2 0xD21 SWAP1 PUSH2 0x1E46 JUMP JUMPDEST DUP1 ISZERO PUSH2 0xD6E JUMPI DUP1 PUSH1 0x1F LT PUSH2 0xD43 JUMPI PUSH2 0x100 DUP1 DUP4 SLOAD DIV MUL DUP4 MSTORE SWAP2 PUSH1 0x20 ADD SWAP2 PUSH2 0xD6E JUMP JUMPDEST DUP3 ADD SWAP2 SWAP1 PUSH1 0x0 MSTORE PUSH1 0x20 PUSH1 0x0 KECCAK256 SWAP1 JUMPDEST DUP2 SLOAD DUP2 MSTORE SWAP1 PUSH1 0x1 ADD SWAP1 PUSH1 0x20 ADD DUP1 DUP4 GT PUSH2 0xD51 JUMPI DUP3 SWAP1 SUB PUSH1 0x1F AND DUP3 ADD SWAP2 JUMPDEST POP POP POP POP POP DUP2 MSTORE PUSH1 0x20 ADD PUSH1 0x3 DUP3 ADD DUP1 SLOAD PUSH2 0xD87 SWAP1 PUSH2 0x1E46 JUMP JUMPDEST DUP1 PUSH1 0x1F ADD PUSH1 0x20 DUP1 SWAP2 DIV MUL PUSH1 0x20 ADD PUSH1 0x40 MLOAD SWAP1 DUP2 ADD PUSH1 0x40 MSTORE DUP1 SWAP3 SWAP2 SWAP1 DUP2 DUP2 MSTORE PUSH1 0x20 ADD DUP3 DUP1 SLOAD PUSH2 0xDB3 SWAP1 PUSH2 0x1E46 JUMP JUMPDEST DUP1 ISZERO PUSH2 0xE00 JUMPI DUP1 PUSH1 0x1F LT PUSH2 0xDD5 JUMPI PUSH2 0x100 DUP1 DUP4 SLOAD DIV MUL DUP4 MSTORE SWAP2 PUSH1 0x20 ADD SWAP2 PUSH2 0xE00 JUMP JUMPDEST DUP3 ADD SWAP2 SWAP1 PUSH1 0x0 MSTORE PUSH1 0x20 PUSH1 0x0 KECCAK256 SWAP1 JUMPDEST DUP2 SLOAD DUP2 MSTORE SWAP1 PUSH1 0x1 ADD SWAP1 PUSH1 0x20 ADD DUP1 DUP4 GT PUSH2 0xDE3 JUMPI DUP3 SWAP1 SUB PUSH1 0x1F AND DUP3 ADD SWAP2 JUMPDEST POP POP POP POP POP DUP2 MSTORE PUSH1 0x20 ADD PUSH1 0x4 DUP3 ADD DUP1 SLOAD PUSH2 0xE19 SWAP1 PUSH2 0x1E46 JUMP JUMPDEST DUP1 PUSH1 0x1F ADD PUSH1 0x20 DUP1 SWAP2 DIV MUL PUSH1 0x20 ADD PUSH1 0x40 MLOAD SWAP1 DUP2 ADD PUSH1 0x40 MSTORE DUP1 SWAP3 SWAP2 SWAP1 DUP2 DUP2 MSTORE PUSH1 0x20 ADD DUP3 DUP1 SLOAD PUSH2 0xE45 SWAP1 PUSH2 0x1E46 JUMP JUMPDEST DUP1 ISZERO PUSH2 0xE92 JUMPI DUP1 PUSH1 0x1F LT PUSH2 0xE67 JUMPI PUSH2 0x100 DUP1 DUP4 SLOAD DIV MUL DUP4 MSTORE SWAP2 PUSH1 0x20 ADD SWAP2 PUSH2 0xE92 JUMP JUMPDEST DUP3 ADD SWAP2 SWAP1 PUSH1 0x0 MSTORE PUSH1 0x20 PUSH1 0x0 KECCAK256 SWAP1 JUMPDEST DUP2 SLOAD DUP2 MSTORE SWAP1 PUSH1 0x1 ADD SWAP1 PUSH1 0x20 ADD DUP1 DUP4 GT PUSH2 0xE75 JUMPI DUP3 SWAP1 SUB PUSH1 0x1F AND DUP3 ADD SWAP2 JUMPDEST POP POP POP POP POP DUP2 MSTORE PUSH1 0x20 ADD PUSH1 0x5 DUP3 ADD SLOAD DUP2 MSTORE PUSH1 0x20 ADD PUSH1 0x6 DUP3 ADD PUSH1 0x0 SWAP1 SLOAD SWAP1 PUSH2 0x100 EXP SWAP1 DIV PUSH1 0x1 PUSH1 0x1 PUSH1 0xA0 SHL SUB AND PUSH1 0x1 PUSH1 0x1 PUSH1 0xA0 SHL SUB AND PUSH1 0x1 PUSH1 0x1 PUSH1 0xA0 SHL SUB AND DUP2 MSTORE PUSH1 0x20 ADD PUSH1 0x7 DUP3 ADD DUP1 SLOAD DUP1 PUSH1 0x20 MUL PUSH1 0x20 ADD PUSH1 0x40 MLOAD SWAP1 DUP2 ADD PUSH1 0x40 MSTORE DUP1 SWAP3 SWAP2 SWAP1 DUP2 DUP2 MSTORE PUSH1 0x20 ADD DUP3 DUP1 SLOAD DUP1 ISZERO PUSH2 0xF2D JUMPI PUSH1 0x20 MUL DUP3 ADD SWAP2 SWAP1 PUSH1 0x0 MSTORE PUSH1 0x20 PUSH1 0x0 KECCAK256 SWAP1 JUMPDEST DUP2 SLOAD PUSH1 0x1 PUSH1 0x1 PUSH1 0xA0 SHL SUB AND DUP2 MSTORE PUSH1 0x1 SWAP1 SWAP2 ADD SWAP1 PUSH1 0x20 ADD DUP1 DUP4 GT PUSH2 0xF0F JUMPI JUMPDEST POP POP POP POP POP DUP2 MSTORE PUSH1 0x20 ADD PUSH1 0x8 DUP3 ADD SLOAD DUP2 MSTORE POP POP SWAP1 POP SWAP2 SWAP1 POP JUMP JUMPDEST PUSH1 0xA PUSH1 0x20 MSTORE DUP2 PUSH1 0x0 MSTORE PUSH1 0x40 PUSH1 0x0 KECCAK256 DUP2 DUP2 SLOAD DUP2 LT PUSH2 0xF63 JUMPI PUSH1 0x0 DUP1 REVERT JUMPDEST PUSH1 0x0 SWAP2 DUP3 MSTORE PUSH1 0x20 SWAP1 SWAP2 KECCAK256 PUSH1 0x9 SWAP1 SWAP2 MUL ADD DUP1 SLOAD PUSH1 0x1 DUP3 ADD SLOAD PUSH1 0x2 DUP4 ADD DUP1 SLOAD SWAP3 SWAP6 POP PUSH1 0x1 PUSH1 0x1 PUSH1 0xA0 SHL SUB SWAP1 SWAP2 AND SWAP4 POP SWAP1 PUSH2 0xA8C SWAP1 PUSH2 0x1E46 JUMP JUMPDEST PUSH1 0xC PUSH1 0x20 MSTORE PUSH1 0x0 SWAP1 DUP2 MSTORE PUSH1 0x40 SWAP1 KECCAK256 DUP1 SLOAD PUSH1 0x1 DUP3 ADD SLOAD PUSH1 0x2 DUP4 ADD DUP1 SLOAD SWAP3 SWAP4 PUSH1 0x1 PUSH1 0x1 PUSH1 0xA0 SHL SUB SWAP1 SWAP3 AND SWAP3 PUSH2 0xA8C SWAP1 PUSH2 0x1E46 JUMP JUMPDEST PUSH1 0x0 DUP2 DUP2 MSTORE PUSH1 0xC PUSH1 0x20 MSTORE PUSH1 0x40 SWAP1 KECCAK256 PUSH1 0x1 ADD SLOAD PUSH1 0x1 PUSH1 0x1 PUSH1 0xA0 SHL SUB AND CALLER SUB PUSH2 0xFF2 JUMPI PUSH1 0x0 DUP1 REVERT JUMPDEST PUSH1 0x0 SWAP1 DUP2 MSTORE PUSH1 0xC PUSH1 0x20 SWAP1 DUP2 MSTORE PUSH1 0x40 DUP3 KECCAK256 PUSH1 0x7 ADD DUP1 SLOAD PUSH1 0x1 DUP2 ADD DUP3 SSTORE SWAP1 DUP4 MSTORE SWAP2 KECCAK256 ADD DUP1 SLOAD PUSH1 0x1 PUSH1 0x1 PUSH1 0xA0 SHL SUB NOT AND CALLER OR SWAP1 SSTORE JUMP JUMPDEST PUSH1 0x40 DUP1 MLOAD PUSH2 0x120 DUP2 ADD DUP3 MSTORE PUSH1 0x1 DUP1 SLOAD DUP3 MSTORE PUSH1 0x2 SLOAD PUSH1 0x1 PUSH1 0x1 PUSH1 0xA0 SHL SUB AND PUSH1 0x20 DUP4 ADD MSTORE PUSH1 0x3 DUP1 SLOAD PUSH1 0x0 SWAP5 DUP6 SWAP5 SWAP4 SWAP3 SWAP1 DUP5 ADD SWAP2 PUSH2 0x105F SWAP1 PUSH2 0x1E46 JUMP JUMPDEST DUP1 PUSH1 0x1F ADD PUSH1 0x20 DUP1 SWAP2 DIV MUL PUSH1 0x20 ADD PUSH1 0x40 MLOAD SWAP1 DUP2 ADD PUSH1 0x40 MSTORE DUP1 SWAP3 SWAP2 SWAP1 DUP2 DUP2 MSTORE PUSH1 0x20 ADD DUP3 DUP1 SLOAD PUSH2 0x108B SWAP1 PUSH2 0x1E46 JUMP JUMPDEST DUP1 ISZERO PUSH2 0x10D8 JUMPI DUP1 PUSH1 0x1F LT PUSH2 0x10AD JUMPI PUSH2 0x100 DUP1 DUP4 SLOAD DIV MUL DUP4 MSTORE SWAP2 PUSH1 0x20 ADD SWAP2 PUSH2 0x10D8 JUMP JUMPDEST DUP3 ADD SWAP2 SWAP1 PUSH1 0x0 MSTORE PUSH1 0x20 PUSH1 0x0 KECCAK256 SWAP1 JUMPDEST DUP2 SLOAD DUP2 MSTORE SWAP1 PUSH1 0x1 ADD SWAP1 PUSH1 0x20 ADD DUP1 DUP4 GT PUSH2 0x10BB JUMPI DUP3 SWAP1 SUB PUSH1 0x1F AND DUP3 ADD SWAP2 JUMPDEST POP POP POP POP POP DUP2 MSTORE PUSH1 0x20 ADD PUSH1 0x3 DUP3 ADD DUP1 SLOAD PUSH2 0x10F1 SWAP1 PUSH2 0x1E46 JUMP JUMPDEST DUP1 PUSH1 0x1F ADD PUSH1 0x20 DUP1 SWAP2 DIV MUL PUSH1 0x20 ADD PUSH1 0x40 MLOAD SWAP1 DUP2 ADD PUSH1 0x40 MSTORE DUP1 SWAP3 SWAP2 SWAP1 DUP2 DUP2 MSTORE PUSH1 0x20 ADD DUP3 DUP1 SLOAD PUSH2 0x111D SWAP1 PUSH2 0x1E46 JUMP JUMPDEST DUP1 ISZERO PUSH2 0x116A JUMPI DUP1 PUSH1 0x1F LT PUSH2 0x113F JUMPI PUSH2 0x100 DUP1 DUP4 SLOAD DIV MUL DUP4 MSTORE SWAP2 PUSH1 0x20 ADD SWAP2 PUSH2 0x116A JUMP JUMPDEST DUP3 ADD SWAP2 SWAP1 PUSH1 0x0 MSTORE PUSH1 0x20 PUSH1 0x0 KECCAK256 SWAP1 JUMPDEST DUP2 SLOAD DUP2 MSTORE SWAP1 PUSH1 0x1 ADD SWAP1 PUSH1 0x20 ADD DUP1 DUP4 GT PUSH2 0x114D JUMPI DUP3 SWAP1 SUB PUSH1 0x1F AND DUP3 ADD SWAP2 JUMPDEST POP POP POP POP POP DUP2 MSTORE PUSH1 0x20 ADD PUSH1 0x4 DUP3 ADD DUP1 SLOAD PUSH2 0x1183 SWAP1 PUSH2 0x1E46 JUMP JUMPDEST DUP1 PUSH1 0x1F ADD PUSH1 0x20 DUP1 SWAP2 DIV MUL PUSH1 0x20 ADD PUSH1 0x40 MLOAD SWAP1 DUP2 ADD PUSH1 0x40 MSTORE DUP1 SWAP3 SWAP2 SWAP1 DUP2 DUP2 MSTORE PUSH1 0x20 ADD DUP3 DUP1 SLOAD PUSH2 0x11AF SWAP1 PUSH2 0x1E46 JUMP JUMPDEST DUP1 ISZERO PUSH2 0x11FC JUMPI DUP1 PUSH1 0x1F LT PUSH2 0x11D1 JUMPI PUSH2 0x100 DUP1 DUP4 SLOAD DIV MUL DUP4 MSTORE SWAP2 PUSH1 0x20 ADD SWAP2 PUSH2 0x11FC JUMP JUMPDEST DUP3 ADD SWAP2 SWAP1 PUSH1 0x0 MSTORE PUSH1 0x20 PUSH1 0x0 KECCAK256 SWAP1 JUMPDEST DUP2 SLOAD DUP2 MSTORE SWAP1 PUSH1 0x1 ADD SWAP1 PUSH1 0x20 ADD DUP1 DUP4 GT PUSH2 0x11DF JUMPI DUP3 SWAP1 SUB PUSH1 0x1F AND DUP3 ADD SWAP2 JUMPDEST POP POP POP POP POP DUP2 MSTORE PUSH1 0x20 ADD PUSH1 0x5 DUP3 ADD SLOAD DUP2 MSTORE PUSH1 0x20 ADD PUSH1 0x6 DUP3 ADD PUSH1 0x0 SWAP1 SLOAD SWAP1 PUSH2 0x100 EXP SWAP1 DIV PUSH1 0x1 PUSH1 0x1 PUSH1 0xA0 SHL SUB AND PUSH1 0x1 PUSH1 0x1 PUSH1 0xA0 SHL SUB AND PUSH1 0x1 PUSH1 0x1 PUSH1 0xA0 SHL SUB AND DUP2 MSTORE PUSH1 0x20 ADD PUSH1 0x7 DUP3 ADD DUP1 SLOAD DUP1 PUSH1 0x20 MUL PUSH1 0x20 ADD PUSH1 0x40 MLOAD SWAP1 DUP2 ADD PUSH1 0x40 MSTORE DUP1 SWAP3 SWAP2 SWAP1 DUP2 DUP2 MSTORE PUSH1 0x20 ADD DUP3 DUP1 SLOAD DUP1 ISZERO PUSH2 0x1297 JUMPI PUSH1 0x20 MUL DUP3 ADD SWAP2 SWAP1 PUSH1 0x0 MSTORE PUSH1 0x20 PUSH1 0x0 KECCAK256 SWAP1 JUMPDEST DUP2 SLOAD PUSH1 0x1 PUSH1 0x1 PUSH1 0xA0 SHL SUB AND DUP2 MSTORE PUSH1 0x1 SWAP1 SWAP2 ADD SWAP1 PUSH1 0x20 ADD DUP1 DUP4 GT PUSH2 0x1279 JUMPI JUMPDEST POP POP POP SWAP2 DUP4 MSTORE POP POP PUSH1 0x8 SWAP2 SWAP1 SWAP2 ADD SLOAD PUSH1 0x20 SWAP2 DUP3 ADD MSTORE PUSH1 0x40 DUP3 ADD DUP9 SWAP1 MSTORE PUSH1 0x60 DUP3 ADD DUP8 SWAP1 MSTORE PUSH1 0x80 DUP3 ADD DUP7 SWAP1 MSTORE PUSH1 0xA0 DUP3 ADD DUP6 SWAP1 MSTORE TIMESTAMP PUSH2 0x100 DUP4 ADD MSTORE CALLER SWAP1 DUP3 ADD MSTORE PUSH1 0x0 DUP1 SLOAD DUP1 DUP4 MSTORE SWAP2 SWAP3 POP DUP1 PUSH2 0x12E8 DUP4 PUSH2 0x1E96 JUMP JUMPDEST SWAP1 SWAP2 SSTORE POP POP DUP1 MLOAD PUSH1 0x0 SWAP1 DUP2 MSTORE PUSH1 0xB PUSH1 0x20 SWAP1 DUP2 MSTORE PUSH1 0x40 DUP1 DUP4 KECCAK256 DUP1 SLOAD CALLER PUSH1 0x1 PUSH1 0x1 PUSH1 0xA0 SHL SUB NOT SWAP2 DUP3 AND OR SWAP1 SWAP2 SSTORE DUP5 MLOAD DUP5 MSTORE PUSH1 0xC DUP4 MSTORE SWAP3 DUP2 SWAP1 KECCAK256 DUP5 MLOAD DUP2 SSTORE DUP3 DUP6 ADD MLOAD PUSH1 0x1 DUP3 ADD DUP1 SLOAD SWAP1 SWAP6 AND PUSH1 0x1 PUSH1 0x1 PUSH1 0xA0 SHL SUB SWAP1 SWAP2 AND OR SWAP1 SWAP4 SSTORE DUP4 ADD MLOAD DUP1 MLOAD DUP5 SWAP4 SWAP3 PUSH2 0x1358 SWAP3 PUSH1 0x2 DUP6 ADD SWAP3 SWAP2 ADD SWAP1 PUSH2 0x1921 JUMP JUMPDEST POP PUSH1 0x60 DUP3 ADD MLOAD DUP1 MLOAD PUSH2 0x1374 SWAP2 PUSH1 0x3 DUP5 ADD SWAP2 PUSH1 0x20 SWAP1 SWAP2 ADD SWAP1 PUSH2 0x1921 JUMP JUMPDEST POP PUSH1 0x80 DUP3 ADD MLOAD DUP1 MLOAD PUSH2 0x1390 SWAP2 PUSH1 0x4 DUP5 ADD SWAP2 PUSH1 0x20 SWAP1 SWAP2 ADD SWAP1 PUSH2 0x1921 JUMP JUMPDEST POP PUSH1 0xA0 DUP3 ADD MLOAD PUSH1 0x5 DUP3 ADD SSTORE PUSH1 0xC0 DUP3 ADD MLOAD PUSH1 0x6 DUP3 ADD DUP1 SLOAD PUSH1 0x1 PUSH1 0x1 PUSH1 0xA0 SHL SUB NOT AND PUSH1 0x1 PUSH1 0x1 PUSH1 0xA0 SHL SUB SWAP1 SWAP3 AND SWAP2 SWAP1 SWAP2 OR SWAP1 SSTORE PUSH1 0xE0 DUP3 ADD MLOAD DUP1 MLOAD PUSH2 0x13DC SWAP2 PUSH1 0x7 DUP5 ADD SWAP2 PUSH1 0x20 SWAP1 SWAP2 ADD SWAP1 PUSH2 0x1995 JUMP JUMPDEST POP PUSH2 0x100 SWAP2 SWAP1 SWAP2 ADD MLOAD PUSH1 0x8 SWAP1 SWAP2 ADD SSTORE CALLER PUSH1 0x0 SWAP1 DUP2 MSTORE PUSH1 0xA PUSH1 0x20 SWAP1 DUP2 MSTORE PUSH1 0x40 DUP1 DUP4 KECCAK256 DUP1 SLOAD PUSH1 0x1 DUP1 DUP3 ADD DUP4 SSTORE SWAP2 DUP6 MSTORE SWAP4 DUP4 SWAP1 KECCAK256 DUP6 MLOAD PUSH1 0x9 SWAP1 SWAP6 MUL ADD SWAP4 DUP5 SSTORE DUP5 DUP4 ADD MLOAD SWAP1 DUP5 ADD DUP1 SLOAD PUSH1 0x1 PUSH1 0x1 PUSH1 0xA0 SHL SUB NOT AND PUSH1 0x1 PUSH1 0x1 PUSH1 0xA0 SHL SUB SWAP1 SWAP3 AND SWAP2 SWAP1 SWAP2 OR SWAP1 SSTORE DUP4 ADD MLOAD DUP1 MLOAD DUP5 SWAP4 SWAP3 PUSH2 0x1455 SWAP3 PUSH1 0x2 DUP6 ADD SWAP3 SWAP2 ADD SWAP1 PUSH2 0x1921 JUMP JUMPDEST POP PUSH1 0x60 DUP3 ADD MLOAD DUP1 MLOAD PUSH2 0x1471 SWAP2 PUSH1 0x3 DUP5 ADD SWAP2 PUSH1 0x20 SWAP1 SWAP2 ADD SWAP1 PUSH2 0x1921 JUMP JUMPDEST POP PUSH1 0x80 DUP3 ADD MLOAD DUP1 MLOAD PUSH2 0x148D SWAP2 PUSH1 0x4 DUP5 ADD SWAP2 PUSH1 0x20 SWAP1 SWAP2 ADD SWAP1 PUSH2 0x1921 JUMP JUMPDEST POP PUSH1 0xA0 DUP3 ADD MLOAD PUSH1 0x5 DUP3 ADD SSTORE PUSH1 0xC0 DUP3 ADD MLOAD PUSH1 0x6 DUP3 ADD DUP1 SLOAD PUSH1 0x1 PUSH1 0x1 PUSH1 0xA0 SHL SUB NOT AND PUSH1 0x1 PUSH1 0x1 PUSH1 0xA0 SHL SUB SWAP1 SWAP3 AND SWAP2 SWAP1 SWAP2 OR SWAP1 SSTORE PUSH1 0xE0 DUP3 ADD MLOAD DUP1 MLOAD PUSH2 0x14D9 SWAP2 PUSH1 0x7 DUP5 ADD SWAP2 PUSH1 0x20 SWAP1 SWAP2 ADD SWAP1 PUSH2 0x1995 JUMP JUMPDEST POP PUSH2 0x100 SWAP2 SWAP1 SWAP2 ADD MLOAD PUSH1 0x8 SWAP1 SWAP2 ADD SSTORE MLOAD SWAP6 SWAP5 POP POP POP POP POP JUMP JUMPDEST PUSH1 0x0 DUP2 DUP2 MSTORE PUSH1 0xB PUSH1 0x20 MSTORE PUSH1 0x40 SWAP1 KECCAK256 SLOAD PUSH1 0x1 PUSH1 0x1 PUSH1 0xA0 SHL SUB AND CALLER EQ PUSH2 0x1515 JUMPI PUSH1 0x0 DUP1 REVERT JUMPDEST PUSH1 0x0 JUMPDEST CALLER PUSH1 0x0 SWAP1 DUP2 MSTORE PUSH1 0xA PUSH1 0x20 MSTORE PUSH1 0x40 SWAP1 KECCAK256 SLOAD DUP2 LT ISZERO PUSH2 0x728 JUMPI CALLER PUSH1 0x0 SWAP1 DUP2 MSTORE PUSH1 0xA PUSH1 0x20 MSTORE PUSH1 0x40 SWAP1 KECCAK256 DUP1 SLOAD DUP3 SWAP1 DUP2 LT PUSH2 0x1550 JUMPI PUSH2 0x1550 PUSH2 0x1E03 JUMP JUMPDEST SWAP1 PUSH1 0x0 MSTORE PUSH1 0x20 PUSH1 0x0 KECCAK256 SWAP1 PUSH1 0x9 MUL ADD PUSH1 0x0 ADD SLOAD DUP3 SUB PUSH2 0x17EA JUMPI CALLER PUSH1 0x0 SWAP1 DUP2 MSTORE PUSH1 0xA PUSH1 0x20 MSTORE PUSH1 0x40 SWAP1 KECCAK256 DUP1 SLOAD PUSH2 0x1585 SWAP1 PUSH1 0x1 SWAP1 PUSH2 0x1E2F JUMP JUMPDEST DUP2 SLOAD DUP2 LT PUSH2 0x1595 JUMPI PUSH2 0x1595 PUSH2 0x1E03 JUMP JUMPDEST SWAP1 PUSH1 0x0 MSTORE PUSH1 0x20 PUSH1 0x0 KECCAK256 SWAP1 PUSH1 0x9 MUL ADD PUSH1 0xA PUSH1 0x0 CALLER PUSH1 0x1 PUSH1 0x1 PUSH1 0xA0 SHL SUB AND PUSH1 0x1 PUSH1 0x1 PUSH1 0xA0 SHL SUB AND DUP2 MSTORE PUSH1 0x20 ADD SWAP1 DUP2 MSTORE PUSH1 0x20 ADD PUSH1 0x0 KECCAK256 DUP3 DUP2 SLOAD DUP2 LT PUSH2 0x15D9 JUMPI PUSH2 0x15D9 PUSH2 0x1E03 JUMP JUMPDEST PUSH1 0x0 SWAP2 DUP3 MSTORE PUSH1 0x20 SWAP1 SWAP2 KECCAK256 DUP3 SLOAD PUSH1 0x9 SWAP1 SWAP3 MUL ADD SWAP1 DUP2 SSTORE PUSH1 0x1 DUP1 DUP4 ADD SLOAD SWAP1 DUP3 ADD DUP1 SLOAD PUSH1 0x1 PUSH1 0x1 PUSH1 0xA0 SHL SUB NOT AND PUSH1 0x1 PUSH1 0x1 PUSH1 0xA0 SHL SUB SWAP1 SWAP3 AND SWAP2 SWAP1 SWAP2 OR SWAP1 SSTORE PUSH1 0x2 DUP1 DUP4 ADD DUP1 SLOAD SWAP2 DUP4 ADD SWAP2 PUSH2 0x1628 SWAP1 PUSH2 0x1E46 JUMP JUMPDEST PUSH2 0x1633 SWAP3 SWAP2 SWAP1 PUSH2 0x17FC JUMP JUMPDEST POP PUSH1 0x3 DUP3 ADD DUP2 PUSH1 0x3 ADD SWAP1 DUP1 SLOAD PUSH2 0x1648 SWAP1 PUSH2 0x1E46 JUMP JUMPDEST PUSH2 0x1653 SWAP3 SWAP2 SWAP1 PUSH2 0x17FC JUMP JUMPDEST POP PUSH1 0x4 DUP3 ADD DUP2 PUSH1 0x4 ADD SWAP1 DUP1 SLOAD PUSH2 0x1668 SWAP1 PUSH2 0x1E46 JUMP JUMPDEST PUSH2 0x1673 SWAP3 SWAP2 SWAP1 PUSH2 0x17FC JUMP JUMPDEST POP PUSH1 0x5 DUP3 DUP2 ADD SLOAD SWAP1 DUP3 ADD SSTORE PUSH1 0x6 DUP1 DUP4 ADD SLOAD SWAP1 DUP3 ADD DUP1 SLOAD PUSH1 0x1 PUSH1 0x1 PUSH1 0xA0 SHL SUB NOT AND PUSH1 0x1 PUSH1 0x1 PUSH1 0xA0 SHL SUB SWAP1 SWAP3 AND SWAP2 SWAP1 SWAP2 OR SWAP1 SSTORE PUSH1 0x7 DUP1 DUP4 ADD DUP1 SLOAD PUSH2 0x16B8 SWAP3 DUP5 ADD SWAP2 SWAP1 PUSH2 0x1887 JUMP JUMPDEST POP PUSH1 0x8 SWAP2 DUP3 ADD SLOAD SWAP2 ADD SSTORE CALLER PUSH1 0x0 SWAP1 DUP2 MSTORE PUSH1 0xA PUSH1 0x20 MSTORE PUSH1 0x40 SWAP1 KECCAK256 DUP1 SLOAD DUP1 PUSH2 0x16E0 JUMPI PUSH2 0x16E0 PUSH2 0x1E80 JUMP JUMPDEST PUSH1 0x0 DUP3 DUP2 MSTORE PUSH1 0x20 DUP2 KECCAK256 PUSH1 0x9 PUSH1 0x0 NOT SWAP1 SWAP4 ADD SWAP3 DUP4 MUL ADD DUP2 DUP2 SSTORE PUSH1 0x1 DUP2 ADD DUP1 SLOAD PUSH1 0x1 PUSH1 0x1 PUSH1 0xA0 SHL SUB NOT AND SWAP1 SSTORE SWAP1 PUSH2 0x1718 PUSH1 0x2 DUP4 ADD DUP3 PUSH2 0x18C6 JUMP JUMPDEST PUSH2 0x1726 PUSH1 0x3 DUP4 ADD PUSH1 0x0 PUSH2 0x18C6 JUMP JUMPDEST PUSH2 0x1734 PUSH1 0x4 DUP4 ADD PUSH1 0x0 PUSH2 0x18C6 JUMP JUMPDEST PUSH1 0x0 PUSH1 0x5 DUP4 ADD DUP2 SWAP1 SSTORE PUSH1 0x6 DUP4 ADD DUP1 SLOAD PUSH1 0x1 PUSH1 0x1 PUSH1 0xA0 SHL SUB NOT AND SWAP1 SSTORE PUSH2 0x175D SWAP1 PUSH1 0x7 DUP5 ADD SWAP1 PUSH2 0x1903 JUMP JUMPDEST POP PUSH1 0x0 PUSH1 0x8 SWAP2 SWAP1 SWAP2 ADD DUP2 SWAP1 SSTORE SWAP2 SSTORE DUP3 DUP2 MSTORE PUSH1 0xC PUSH1 0x20 MSTORE PUSH1 0x40 DUP2 KECCAK256 DUP2 DUP2 SSTORE PUSH1 0x1 DUP2 ADD DUP1 SLOAD PUSH1 0x1 PUSH1 0x1 PUSH1 0xA0 SHL SUB NOT AND SWAP1 SSTORE SWAP1 PUSH2 0x179A PUSH1 0x2 DUP4 ADD DUP3 PUSH2 0x18C6 JUMP JUMPDEST PUSH2 0x17A8 PUSH1 0x3 DUP4 ADD PUSH1 0x0 PUSH2 0x18C6 JUMP JUMPDEST PUSH2 0x17B6 PUSH1 0x4 DUP4 ADD PUSH1 0x0 PUSH2 0x18C6 JUMP JUMPDEST PUSH1 0x0 PUSH1 0x5 DUP4 ADD DUP2 SWAP1 SSTORE PUSH1 0x6 DUP4 ADD DUP1 SLOAD PUSH1 0x1 PUSH1 0x1 PUSH1 0xA0 SHL SUB NOT AND SWAP1 SSTORE PUSH2 0x17DF SWAP1 PUSH1 0x7 DUP5 ADD SWAP1 PUSH2 0x1903 JUMP JUMPDEST PUSH1 0x8 DUP3 ADD PUSH1 0x0 SWAP1 SSTORE POP POP JUMPDEST DUP1 PUSH2 0x17F4 DUP2 PUSH2 0x1E96 JUMP JUMPDEST SWAP2 POP POP PUSH2 0x1518 JUMP JUMPDEST DUP3 DUP1 SLOAD PUSH2 0x1808 SWAP1 PUSH2 0x1E46 JUMP JUMPDEST SWAP1 PUSH1 0x0 MSTORE PUSH1 0x20 PUSH1 0x0 KECCAK256 SWAP1 PUSH1 0x1F ADD PUSH1 0x20 SWAP1 DIV DUP2 ADD SWAP3 DUP3 PUSH2 0x182A JUMPI PUSH1 0x0 DUP6 SSTORE PUSH2 0x1877 JUMP JUMPDEST DUP3 PUSH1 0x1F LT PUSH2 0x183B JUMPI DUP1 SLOAD DUP6 SSTORE PUSH2 0x1877 JUMP JUMPDEST DUP3 DUP1 ADD PUSH1 0x1 ADD DUP6 SSTORE DUP3 ISZERO PUSH2 0x1877 JUMPI PUSH1 0x0 MSTORE PUSH1 0x20 PUSH1 0x0 KECCAK256 SWAP2 PUSH1 0x1F ADD PUSH1 0x20 SWAP1 DIV DUP3 ADD JUMPDEST DUP3 DUP2 GT ISZERO PUSH2 0x1877 JUMPI DUP3 SLOAD DUP3 SSTORE SWAP2 PUSH1 0x1 ADD SWAP2 SWAP1 PUSH1 0x1 ADD SWAP1 PUSH2 0x185C JUMP JUMPDEST POP PUSH2 0x1883 SWAP3 SWAP2 POP PUSH2 0x19EA JUMP JUMPDEST POP SWAP1 JUMP JUMPDEST DUP3 DUP1 SLOAD DUP3 DUP3 SSTORE SWAP1 PUSH1 0x0 MSTORE PUSH1 0x20 PUSH1 0x0 KECCAK256 SWAP1 DUP2 ADD SWAP3 DUP3 ISZERO PUSH2 0x1877 JUMPI PUSH1 0x0 MSTORE PUSH1 0x20 PUSH1 0x0 KECCAK256 SWAP2 DUP3 ADD DUP3 DUP2 GT ISZERO PUSH2 0x1877 JUMPI DUP3 SLOAD DUP3 SSTORE SWAP2 PUSH1 0x1 ADD SWAP2 SWAP1 PUSH1 0x1 ADD SWAP1 PUSH2 0x185C JUMP JUMPDEST POP DUP1 SLOAD PUSH2 0x18D2 SWAP1 PUSH2 0x1E46 JUMP JUMPDEST PUSH1 0x0 DUP3 SSTORE DUP1 PUSH1 0x1F LT PUSH2 0x18E2 JUMPI POP POP JUMP JUMPDEST PUSH1 0x1F ADD PUSH1 0x20 SWAP1 DIV SWAP1 PUSH1 0x0 MSTORE PUSH1 0x20 PUSH1 0x0 KECCAK256 SWAP1 DUP2 ADD SWAP1 PUSH2 0x1900 SWAP2 SWAP1 PUSH2 0x19EA JUMP JUMPDEST POP JUMP JUMPDEST POP DUP1 SLOAD PUSH1 0x0 DUP3 SSTORE SWAP1 PUSH1 0x0 MSTORE PUSH1 0x20 PUSH1 0x0 KECCAK256 SWAP1 DUP2 ADD SWAP1 PUSH2 0x1900 SWAP2 SWAP1 PUSH2 0x19EA JUMP JUMPDEST DUP3 DUP1 SLOAD PUSH2 0x192D SWAP1 PUSH2 0x1E46 JUMP JUMPDEST SWAP1 PUSH1 0x0 MSTORE PUSH1 0x20 PUSH1 0x0 KECCAK256 SWAP1 PUSH1 0x1F ADD PUSH1 0x20 SWAP1 DIV DUP2 ADD SWAP3 DUP3 PUSH2 0x194F JUMPI PUSH1 0x0 DUP6 SSTORE PUSH2 0x1877 JUMP JUMPDEST DUP3 PUSH1 0x1F LT PUSH2 0x1968 JUMPI DUP1 MLOAD PUSH1 0xFF NOT AND DUP4 DUP1 ADD OR DUP6 SSTORE PUSH2 0x1877 JUMP JUMPDEST DUP3 DUP1 ADD PUSH1 0x1 ADD DUP6 SSTORE DUP3 ISZERO PUSH2 0x1877 JUMPI SWAP2 DUP3 ADD JUMPDEST DUP3 DUP2 GT ISZERO PUSH2 0x1877 JUMPI DUP3 MLOAD DUP3 SSTORE SWAP2 PUSH1 0x20 ADD SWAP2 SWAP1 PUSH1 0x1 ADD SWAP1 PUSH2 0x197A JUMP JUMPDEST DUP3 DUP1 SLOAD DUP3 DUP3 SSTORE SWAP1 PUSH1 0x0 MSTORE PUSH1 0x20 PUSH1 0x0 KECCAK256 SWAP1 DUP2 ADD SWAP3 DUP3 ISZERO PUSH2 0x1877 JUMPI SWAP2 PUSH1 0x20 MUL DUP3 ADD JUMPDEST DUP3 DUP2 GT ISZERO PUSH2 0x1877 JUMPI DUP3 MLOAD DUP3 SLOAD PUSH1 0x1 PUSH1 0x1 PUSH1 0xA0 SHL SUB NOT AND PUSH1 0x1 PUSH1 0x1 PUSH1 0xA0 SHL SUB SWAP1 SWAP2 AND OR DUP3 SSTORE PUSH1 0x20 SWAP1 SWAP3 ADD SWAP2 PUSH1 0x1 SWAP1 SWAP2 ADD SWAP1 PUSH2 0x19B5 JUMP JUMPDEST JUMPDEST DUP1 DUP3 GT ISZERO PUSH2 0x1883 JUMPI PUSH1 0x0 DUP2 SSTORE PUSH1 0x1 ADD PUSH2 0x19EB JUMP JUMPDEST PUSH1 0x0 PUSH1 0x20 DUP3 DUP5 SUB SLT ISZERO PUSH2 0x1A11 JUMPI PUSH1 0x0 DUP1 REVERT JUMPDEST POP CALLDATALOAD SWAP2 SWAP1 POP JUMP JUMPDEST DUP1 CALLDATALOAD PUSH1 0x1 PUSH1 0x1 PUSH1 0xA0 SHL SUB DUP2 AND DUP2 EQ PUSH2 0x1A2F JUMPI PUSH1 0x0 DUP1 REVERT JUMPDEST SWAP2 SWAP1 POP JUMP JUMPDEST PUSH1 0x0 DUP1 PUSH1 0x40 DUP4 DUP6 SUB SLT ISZERO PUSH2 0x1A47 JUMPI PUSH1 0x0 DUP1 REVERT JUMPDEST DUP3 CALLDATALOAD SWAP2 POP PUSH2 0x1A57 PUSH1 0x20 DUP5 ADD PUSH2 0x1A18 JUMP JUMPDEST SWAP1 POP SWAP3 POP SWAP3 SWAP1 POP JUMP JUMPDEST PUSH1 0x0 DUP2 MLOAD DUP1 DUP5 MSTORE PUSH1 0x0 JUMPDEST DUP2 DUP2 LT ISZERO PUSH2 0x1A86 JUMPI PUSH1 0x20 DUP2 DUP6 ADD DUP2 ADD MLOAD DUP7 DUP4 ADD DUP3 ADD MSTORE ADD PUSH2 0x1A6A JUMP JUMPDEST DUP2 DUP2 GT ISZERO PUSH2 0x1A98 JUMPI PUSH1 0x0 PUSH1 0x20 DUP4 DUP8 ADD ADD MSTORE JUMPDEST POP PUSH1 0x1F ADD PUSH1 0x1F NOT AND SWAP3 SWAP1 SWAP3 ADD PUSH1 0x20 ADD SWAP3 SWAP2 POP POP JUMP JUMPDEST PUSH1 0x0 DUP2 MLOAD DUP1 DUP5 MSTORE PUSH1 0x20 DUP1 DUP6 ADD SWAP5 POP DUP1 DUP5 ADD PUSH1 0x0 JUMPDEST DUP4 DUP2 LT ISZERO PUSH2 0x1AE6 JUMPI DUP2 MLOAD PUSH1 0x1 PUSH1 0x1 PUSH1 0xA0 SHL SUB AND DUP8 MSTORE SWAP6 DUP3 ADD SWAP6 SWAP1 DUP3 ADD SWAP1 PUSH1 0x1 ADD PUSH2 0x1AC1 JUMP JUMPDEST POP SWAP5 SWAP6 SWAP5 POP POP POP POP POP JUMP JUMPDEST PUSH1 0x0 PUSH2 0x120 DUP3 MLOAD DUP5 MSTORE PUSH1 0x20 DUP4 ADD MLOAD PUSH2 0x1B14 PUSH1 0x20 DUP7 ADD DUP3 PUSH1 0x1 PUSH1 0x1 PUSH1 0xA0 SHL SUB AND SWAP1 MSTORE JUMP JUMPDEST POP PUSH1 0x40 DUP4 ADD MLOAD DUP2 PUSH1 0x40 DUP7 ADD MSTORE PUSH2 0x1B2C DUP3 DUP7 ADD DUP3 PUSH2 0x1A60 JUMP JUMPDEST SWAP2 POP POP PUSH1 0x60 DUP4 ADD MLOAD DUP5 DUP3 SUB PUSH1 0x60 DUP7 ADD MSTORE PUSH2 0x1B46 DUP3 DUP3 PUSH2 0x1A60 JUMP JUMPDEST SWAP2 POP POP PUSH1 0x80 DUP4 ADD MLOAD DUP5 DUP3 SUB PUSH1 0x80 DUP7 ADD MSTORE PUSH2 0x1B60 DUP3 DUP3 PUSH2 0x1A60 JUMP JUMPDEST SWAP2 POP POP PUSH1 0xA0 DUP4 ADD MLOAD PUSH1 0xA0 DUP6 ADD MSTORE PUSH1 0xC0 DUP4 ADD MLOAD PUSH2 0x1B87 PUSH1 0xC0 DUP7 ADD DUP3 PUSH1 0x1 PUSH1 0x1 PUSH1 0xA0 SHL SUB AND SWAP1 MSTORE JUMP JUMPDEST POP PUSH1 0xE0 DUP4 ADD MLOAD DUP5 DUP3 SUB PUSH1 0xE0 DUP7 ADD MSTORE PUSH2 0x1B9F DUP3 DUP3 PUSH2 0x1AAD JUMP JUMPDEST PUSH2 0x100 SWAP5 DUP6 ADD MLOAD SWAP6 SWAP1 SWAP5 ADD SWAP5 SWAP1 SWAP5 MSTORE POP SWAP1 SWAP3 SWAP2 POP POP JUMP JUMPDEST PUSH1 0x0 PUSH1 0x20 DUP1 DUP4 ADD DUP2 DUP5 MSTORE DUP1 DUP6 MLOAD DUP1 DUP4 MSTORE PUSH1 0x40 DUP7 ADD SWAP2 POP PUSH1 0x40 DUP2 PUSH1 0x5 SHL DUP8 ADD ADD SWAP3 POP DUP4 DUP8 ADD PUSH1 0x0 JUMPDEST DUP3 DUP2 LT ISZERO PUSH2 0x1C0B JUMPI PUSH1 0x3F NOT DUP9 DUP7 SUB ADD DUP5 MSTORE PUSH2 0x1BF9 DUP6 DUP4 MLOAD PUSH2 0x1AF1 JUMP JUMPDEST SWAP5 POP SWAP3 DUP6 ADD SWAP3 SWAP1 DUP6 ADD SWAP1 PUSH1 0x1 ADD PUSH2 0x1BDD JUMP JUMPDEST POP SWAP3 SWAP8 SWAP7 POP POP POP POP POP POP POP JUMP JUMPDEST DUP9 DUP2 MSTORE PUSH1 0x1 PUSH1 0x1 PUSH1 0xA0 SHL SUB DUP9 DUP2 AND PUSH1 0x20 DUP4 ADD MSTORE PUSH2 0x100 PUSH1 0x40 DUP4 ADD DUP2 SWAP1 MSTORE PUSH1 0x0 SWAP2 PUSH2 0x1C44 DUP5 DUP4 ADD DUP12 PUSH2 0x1A60 JUMP JUMPDEST SWAP2 POP DUP4 DUP3 SUB PUSH1 0x60 DUP6 ADD MSTORE PUSH2 0x1C58 DUP3 DUP11 PUSH2 0x1A60 JUMP JUMPDEST SWAP2 POP DUP4 DUP3 SUB PUSH1 0x80 DUP6 ADD MSTORE PUSH2 0x1C6C DUP3 DUP10 PUSH2 0x1A60 JUMP JUMPDEST PUSH1 0xA0 DUP6 ADD SWAP8 SWAP1 SWAP8 MSTORE SWAP5 SWAP1 SWAP5 AND PUSH1 0xC0 DUP4 ADD MSTORE POP PUSH1 0xE0 ADD MSTORE POP SWAP6 SWAP5 POP POP POP POP POP JUMP JUMPDEST PUSH1 0x20 DUP2 MSTORE PUSH1 0x0 PUSH2 0x1C9F PUSH1 0x20 DUP4 ADD DUP5 PUSH2 0x1AF1 JUMP JUMPDEST SWAP4 SWAP3 POP POP POP JUMP JUMPDEST PUSH1 0x0 DUP1 PUSH1 0x40 DUP4 DUP6 SUB SLT ISZERO PUSH2 0x1CB9 JUMPI PUSH1 0x0 DUP1 REVERT JUMPDEST PUSH2 0x1CC2 DUP4 PUSH2 0x1A18 JUMP JUMPDEST SWAP5 PUSH1 0x20 SWAP4 SWAP1 SWAP4 ADD CALLDATALOAD SWAP4 POP POP POP JUMP JUMPDEST PUSH4 0x4E487B71 PUSH1 0xE0 SHL PUSH1 0x0 MSTORE PUSH1 0x41 PUSH1 0x4 MSTORE PUSH1 0x24 PUSH1 0x0 REVERT JUMPDEST PUSH1 0x0 DUP3 PUSH1 0x1F DUP4 ADD SLT PUSH2 0x1CF7 JUMPI PUSH1 0x0 DUP1 REVERT JUMPDEST DUP2 CALLDATALOAD PUSH8 0xFFFFFFFFFFFFFFFF DUP1 DUP3 GT ISZERO PUSH2 0x1D12 JUMPI PUSH2 0x1D12 PUSH2 0x1CD0 JUMP JUMPDEST PUSH1 0x40 MLOAD PUSH1 0x1F DUP4 ADD PUSH1 0x1F NOT SWAP1 DUP2 AND PUSH1 0x3F ADD AND DUP2 ADD SWAP1 DUP3 DUP3 GT DUP2 DUP4 LT OR ISZERO PUSH2 0x1D3A JUMPI PUSH2 0x1D3A PUSH2 0x1CD0 JUMP JUMPDEST DUP2 PUSH1 0x40 MSTORE DUP4 DUP2 MSTORE DUP7 PUSH1 0x20 DUP6 DUP9 ADD ADD GT ISZERO PUSH2 0x1D53 JUMPI PUSH1 0x0 DUP1 REVERT JUMPDEST DUP4 PUSH1 0x20 DUP8 ADD PUSH1 0x20 DUP4 ADD CALLDATACOPY PUSH1 0x0 PUSH1 0x20 DUP6 DUP4 ADD ADD MSTORE DUP1 SWAP5 POP POP POP POP POP SWAP3 SWAP2 POP POP JUMP JUMPDEST PUSH1 0x0 DUP1 PUSH1 0x0 DUP1 PUSH1 0x80 DUP6 DUP8 SUB SLT ISZERO PUSH2 0x1D89 JUMPI PUSH1 0x0 DUP1 REVERT JUMPDEST DUP5 CALLDATALOAD PUSH8 0xFFFFFFFFFFFFFFFF DUP1 DUP3 GT ISZERO PUSH2 0x1DA1 JUMPI PUSH1 0x0 DUP1 REVERT JUMPDEST PUSH2 0x1DAD DUP9 DUP4 DUP10 ADD PUSH2 0x1CE6 JUMP JUMPDEST SWAP6 POP PUSH1 0x20 DUP8 ADD CALLDATALOAD SWAP2 POP DUP1 DUP3 GT ISZERO PUSH2 0x1DC3 JUMPI PUSH1 0x0 DUP1 REVERT JUMPDEST PUSH2 0x1DCF DUP9 DUP4 DUP10 ADD PUSH2 0x1CE6 JUMP JUMPDEST SWAP5 POP PUSH1 0x40 DUP8 ADD CALLDATALOAD SWAP2 POP DUP1 DUP3 GT ISZERO PUSH2 0x1DE5 JUMPI PUSH1 0x0 DUP1 REVERT JUMPDEST POP PUSH2 0x1DF2 DUP8 DUP3 DUP9 ADD PUSH2 0x1CE6 JUMP JUMPDEST SWAP5 SWAP8 SWAP4 SWAP7 POP SWAP4 SWAP5 PUSH1 0x60 ADD CALLDATALOAD SWAP4 POP POP POP JUMP JUMPDEST PUSH4 0x4E487B71 PUSH1 0xE0 SHL PUSH1 0x0 MSTORE PUSH1 0x32 PUSH1 0x4 MSTORE PUSH1 0x24 PUSH1 0x0 REVERT JUMPDEST PUSH4 0x4E487B71 PUSH1 0xE0 SHL PUSH1 0x0 MSTORE PUSH1 0x11 PUSH1 0x4 MSTORE PUSH1 0x24 PUSH1 0x0 REVERT JUMPDEST PUSH1 0x0 DUP3 DUP3 LT ISZERO PUSH2 0x1E41 JUMPI PUSH2 0x1E41 PUSH2 0x1E19 JUMP JUMPDEST POP SUB SWAP1 JUMP JUMPDEST PUSH1 0x1 DUP2 DUP2 SHR SWAP1 DUP3 AND DUP1 PUSH2 0x1E5A JUMPI PUSH1 0x7F DUP3 AND SWAP2 POP JUMPDEST PUSH1 0x20 DUP3 LT DUP2 SUB PUSH2 0x1E7A JUMPI PUSH4 0x4E487B71 PUSH1 0xE0 SHL PUSH1 0x0 MSTORE PUSH1 0x22 PUSH1 0x4 MSTORE PUSH1 0x24 PUSH1 0x0 REVERT JUMPDEST POP SWAP2 SWAP1 POP JUMP JUMPDEST PUSH4 0x4E487B71 PUSH1 0xE0 SHL PUSH1 0x0 MSTORE PUSH1 0x31 PUSH1 0x4 MSTORE PUSH1 0x24 PUSH1 0x0 REVERT JUMPDEST PUSH1 0x0 PUSH1 0x1 DUP3 ADD PUSH2 0x1EA8 JUMPI PUSH2 0x1EA8 PUSH2 0x1E19 JUMP JUMPDEST POP PUSH1 0x1 ADD SWAP1 JUMP INVALID LOG2 PUSH5 0x6970667358 0x22 SLT KECCAK256 0xD4 0xD7 0xC5 MSIZE PUSH32 0xD62F0D54E8DDBA35B22515BC5C6FC2C8607441C03CC81503D46B6564736F6C63 NUMBER STOP ADDMOD 0xD STOP CALLER ","sha1":"b53c0f4e44c5048caf24cc38591fc1c9141960a1","source":"// SPDX-License-Identifier: MIT\npragma solidity ^0.8.0;\n\ncontract NFT_Market {\n\n    struct NFT{\n        uint256 token_id;\n        address owner;\n        string name;\n        string description;\n        string image;\n        uint256 price;\n        address approved_to;\n        address[] approval_list;\n        uint256 timestamp;\n    }\n    uint256 public tokenCounter;\n    NFT public nft;\n\n    // uint256 public fee;\n    // bytes32 public keyhash;\n\n    mapping(address => NFT[]) public NFT_List;\n    mapping(uint256 => address) public tokenIdToOwner;\n    mapping(uint256 => NFT) public tokenIdToNFT;\n\n//     constructor(address _vrf_address,\n//                 address _link,\n//                 bytes32 _keyhash,\n//                 uint256 _fee) public  \n//                 VRFConsumerBase(_vrf_address, _link ) {\n        \n//         tokenCounter =0;\n//         keyhash = _keyhash;\n//         fee = _fee;\n\n// }\n\n\n    function addNFT( string memory _name, string memory _description, string memory _image, uint256 _price) public returns (uint256){\n        NFT memory new_NFT = nft;\n        new_NFT.name = _name;\n        new_NFT.description = _description;\n        new_NFT.image = _image;\n        new_NFT.price = _price;\n        new_NFT.timestamp = block.timestamp;\n        new_NFT.owner = msg.sender;\n        new_NFT.token_id = tokenCounter;\n        tokenCounter++;\n        \n        tokenIdToOwner[new_NFT.token_id] = msg.sender;\n        tokenIdToNFT[new_NFT.token_id] = new_NFT;\n        NFT_List[msg.sender].push(new_NFT);\n        return new_NFT.token_id;\n    }\n\n    function getNFT(uint256 _token_id) public view returns (NFT memory ){\n        return tokenIdToNFT[_token_id];\n    }\n\n    function getNFTs() public view returns(NFT[] memory)\n    {\n        return NFT_List[msg.sender];\n\n    }\n\n    function purchaseNFT(uint256 _token_id) public payable\n    {\n        require(msg.sender != tokenIdToOwner[_token_id]); //&& msg.sender == tokenIdToNFT[_token_id].approved_to, \"Not eligible to purchase this NFT\");\n        for(uint256 i =0; i<NFT_List[tokenIdToOwner[_token_id]].length; i++){\n            if(_token_id == NFT_List[tokenIdToOwner[_token_id]][i].token_id){\n\n                require(msg.value == tokenIdToNFT[_token_id].price, \"The amount is wrong!\");\n                payable(tokenIdToOwner[_token_id]).transfer(msg.value);\n\n\n                NFT_List[tokenIdToOwner[_token_id]][i] = NFT_List[tokenIdToOwner[_token_id]][NFT_List[tokenIdToOwner[_token_id]].length -1];\n                NFT_List[tokenIdToOwner[_token_id]].pop();\n\n                tokenIdToNFT[_token_id].owner = msg.sender;\n                tokenIdToOwner[_token_id] = msg.sender;\n\n                NFT_List[msg.sender].push(tokenIdToNFT[_token_id]);\n            }\n        }\n\n    }\n\n    function setApprove(uint256 _token_id, address _to) public returns (bool){\n        require(msg.sender == tokenIdToOwner[_token_id]);\n        tokenIdToNFT[_token_id].owner = _to;\n        return true;\n    }\n\n    function requestApproval(uint256 _token_id) public {\n        require(msg.sender != tokenIdToNFT[_token_id].owner);\n        tokenIdToNFT[_token_id].approval_list.push(msg.sender);\n    }\n\n\n    function destroyNFT(uint256 _token_id) public{\n\n        require(msg.sender == tokenIdToOwner[_token_id]);\n        \n        for(uint256 i =0; i<NFT_List[msg.sender].length; i++){\n            if(_token_id == NFT_List[msg.sender][i].token_id){\n                NFT_List[msg.sender][i] = NFT_List[msg.sender][NFT_List[msg.sender].length -1];\n                NFT_List[msg.sender].pop();\n\n                delete tokenIdToNFT[_token_id];\n\n\n            }\n        }\n\n    }\n\n    // function fulfillRandomness(bytes32 requestTd, uint256 _random_number) internal override{\n\n    // }\n\n}","sourcePath":"contracts/NFT_Market.sol","type":"contract","deployment":{"address":"0xc8b98F37b11C9E5c5699A6540A6988D65c0EE213","chainid":"1337","blockHeight":2}}